:100000000C9435010C9466010C9466010C94660105
:100010000C9466010C9466010C9466010C946601C4
:100020000C9466010C9466010C9466010C946601B4
:100030000C9466010C9466010C9466010C946601A4
:100040000C9466010C9466010C9466010C94660194
:100050000C9466010C9466010C9466010C942103C7
:100060000C9466010C94EB020C94C1020C94660192
:100070000C9466010C9466010C9466010C94660164
:100080000C9466010C9466010C9466010C94660154
:100090000C9466010C9466010C9466010C94660144
:1000A0000C9466010C9466010C9466010C94660134
:1000B0000C9466010C9466010C9466010C94660124
:1000C0000C9466010C9466010C9466010C94660114
:1000D0000C9466010C9466010C9466010C94660104
:1000E0000C9466010C94DB040C94B5040C94B104DC
:1000F0000C9488040C949C040C944B020C94AB0458
:100100000C94CD040C94C9040C94A4010C948D049B
:100110000C94FE010C94C6010C94A8040C94D70412
:100120000C94A0040C9468010C94DF040C94B801A6
:100130000C94A4040C94BF040C94C3040C94D10438
:100140000C94BB040C9495010000220025002800AB
:100150002B002E00310034000201000005010801CF
:100160000B0100002100240027002A002D00300090
:10017000330001010000040107010A010000200012
:100180002300260029002C002F003200000100006F
:10019000030106010901050505050705080808080A
:1001A000020202020A0A080804040404010101010F
:1001B000010101010303030303030303040707070A
:1001C0000C0C0C0C0C0C0C0C0202020206060606AF
:1001D000060606060B0B0B0B0B0B0B0B010210207C
:1001E000200808102040102040800201020108046D
:1001F0000201010204081020408080402010080401
:100200000201800402018040201008040201080459
:10021000020101020408102040800102040810209D
:10022000408000000A0B02090C0D0E0807030401B0
:1002300000000000000000000000000000000000BE
:10024000000000000000000000000000000012118B
:10025000100000000000000000000000000000008E
:100260000000000000000000DF0411241FBECFEFDB
:10027000D1E2DEBFCDBF00E00CBF12E0A0E0B2E0F3
:10028000ECE2FAE000E00BBF02C007900D92A23151
:10029000B107D9F722E0A2E1B2E001C01D92A83B6C
:1002A000B207E1F711E0C5E3D1E000E006C0219715
:1002B0000109802FFE010E940C05C433D10780E0A4
:1002C0000807A9F70E946B030C9414050C94000016
:1002D000AF92BF92CF92DF92EF92FF920F931F9354
:1002E000CF93DF936C017B018B01040F151FEB0192
:1002F0005E01AE18BF08C017D10759F06991D60149
:10030000ED91FC910190F081E02DC6011995892BAA
:1003100079F7C501DF91CF911F910F91FF90EF9079
:10032000DF90CF90BF90AF900895FC01538D448D26
:10033000252F30E0842F90E0821B930B541710F090
:10034000CF96089501970895FC01918D828D98179D
:1003500061F0A28DAE0FBF2FB11D5D968C91928D75
:100360009F5F9F73928F90E008958FEF9FEF0895A6
:10037000FC01918D828D981731F0828DE80FF11D6F
:10038000858D90E008958FEF9FEF0895FC01918D8A
:10039000228D892F90E0805C9F4F821B91098F7383
:1003A000992708958BE192E00E94C60121E0892BF4
:1003B00009F420E0822F0895FC01A48DA80FB92F25
:1003C000B11DA35ABF4F2C91848D90E001968F737D
:1003D0009927848FA689B7892C93A089B1898C919C
:1003E000837080648C93938D848D981306C00288EB
:1003F000F389E02D80818F7D80830895EF92FF92B5
:100400000F931F93CF93DF93EC0181E0888F9B8D37
:100410008C8D98131AC0E889F989808185FF15C0F1
:100420009FB7F894EE89FF896083E889F989808114
:100430008370806480839FBF81E090E0DF91CF91E3
:100440001F910F91FF90EF900895F62E0B8D10E005
:100450000F5F1F4F0F731127E02E8C8D8E110CC074
:100460000FB607FCFACFE889F989808185FFF5CFBF
:10047000CE010E94DC01F1CFEB8DEC0FFD2FF11DC1
:10048000E35AFF4FF0829FB7F8940B8FEA89FB89FC
:1004900080818062CFCFCF93DF93EC01888D88235A
:1004A000B9F0AA89BB89E889F9898C9185FD03C0D7
:1004B000808186FD0DC00FB607FCF7CF8C9185FFBC
:1004C000F2CF808185FFEDCFCE010E94DC01E9CF24
:1004D000DF91CF91089580E090E0892B29F00E9470
:1004E000D20181110E94000080E090E0892B49F048
:1004F00080E090E0892B29F00E94000081110E9489
:10050000000080E090E0892B49F080E090E0892BAA
:1005100029F00E94000081110E94000080E090E01C
:10052000892B49F080E090E0892B29F00E9400009F
:1005300081110C94000008953FB7F8948091170240
:1005400090911802A0911902B0911A0226B5A89BA9
:1005500005C02F3F19F00196A11DB11D3FBFBA2F55
:10056000A92F982F8827BC01CD01620F711D811D15
:10057000911D42E0660F771F881F991F4A95D1F79A
:1005800008951F920F920FB60F9211240BB60F927F
:100590002F933F934F935F936F937F938F939F938B
:1005A000AF93BF93EF93FF938BE192E00E94DC0146
:1005B000FF91EF91BF91AF919F918F917F916F913B
:1005C0005F914F913F912F910F900BBE0F900FBEF7
:1005D0000F901F9018951F920F920FB60F92112433
:1005E0000BB60F922F938F939F93EF93FF93E0910E
:1005F0002B02F0912C028081E0913102F0913202C5
:1006000082FD1DC09081809134028F5F8F73209195
:100610003502821741F0E0913402F0E0E55EFD4FD3
:10062000958F80933402FF91EF919F918F912F913D
:100630000F900BBE0F900FBE0F901F9018958081EA
:10064000F2CF1F920F920FB60F9211242F933F9368
:100650008F939F93AF93BF93809113029091140255
:10066000A0911502B09116023091120223E0230FDF
:100670002D3758F50196A11DB11D209312028093CC
:10068000130290931402A0931502B0931602809166
:10069000170290911802A0911902B0911A020196C6
:1006A000A11DB11D8093170290931802A093190207
:1006B000B0931A02BF91AF919F918F913F912F916B
:1006C0000F900FBE0F901F90189526E8230F0296EB
:1006D000A11DB11DD2CF789484B5826084BD84B54C
:1006E000816084BD85B5826085BD85B5816085BD2D
:1006F00080916E00816080936E00109281008091E5
:10070000810082608093810080918100816080936C
:100710008100809180008160809380008091B10091
:1007200084608093B1008091B00081608093B000BC
:10073000809191008260809391008091910081600E
:1007400080939100809190008160809390008091CF
:10075000A10082608093A1008091A10081608093BC
:10076000A1008091A00081608093A0008091210170
:100770008260809321018091210181608093210119
:100780008091200181608093200180917A008460B3
:1007900080937A0080917A00826080937A008091C1
:1007A0007A00816080937A0080917A0080688093DB
:1007B0007A001092C100E0912B02F0912C0282E0AD
:1007C0008083E0912702F09128021082E0912902B3
:1007D000F0912A028FEC808310923302E0912F0275
:1007E000F091300286E08083E0912D02F0912E029C
:1007F000808180618083E0912D02F0912E028081C2
:1008000088608083E0912D02F0912E0280818068C3
:100810008083E0912D02F0912E0280818F7D808374
:10082000C9EED1E0FE01249103EA11E0F8018491C0
:100830008823C9F090E0880F991FFC01EE59FE4F04
:10084000A591B491FC01E85BFE4F459154919FB78F
:10085000F8943C91822F809583238C93FA018081B8
:10086000282B20839FBF2FE2E22E22E0F22EF701F9
:100870008491FE012491F801949191112AC061E3C1
:100880008BE192E00E94FE010E949C022B013C0140
:1008900094E6892E912CA12CB12C0E949C02641903
:1008A000750986099709683E734081059105A8F38B
:1008B000F1E08F1A9108A108B10828EE420E23E05A
:1008C000521E611C711C81149104A104B10429F70A
:1008D00030C0882311F181508231F8F4E82FF0E024
:1008E0008827EA58FB4F8F4F0C940C05A404A804EA
:1008F00088049C04A0048D04AB04B104B504BB04BB
:10090000BF04C304C904CD048D04D104D704DB049F
:10091000809180008F7780938000E92FF0E0EE0FC8
:10092000FF1FE458FE4FA591B4918C91282309F440
:10093000A6CF0E946B029BCF809180008F7DEBCF72
:1009400080918000877FE7CF84B58F7784BDE5CF26
:1009500084B58F7DFBCF8091B0008F778093B000FE
:10096000DCCF8091B0008F7DF9CF809190008F77A0
:1009700080939000D2CF809190008F7DF9CF8091AD
:100980009000877FF5CF8091A0008F778093A000A3
:10099000C4CF8091A0008F7DF9CF8091A000877F88
:1009A000F5CF809120018F7780932001B6CF809181
:1009B00020018F7DF9CF80912001877FF5CFEBE17A
:1009C000F2E01382128288EE93E0A0E0B0E084832C
:1009D0009583A683B78384E092E09183808385EC3E
:1009E00090E09587848784EC90E09787868780ECF9
:1009F00090E0918B808B81EC90E0938B828B82ECEA
:100A000090E0958B848B86EC90E0978B868B118E93
:100A1000128E138E148E0895EE0FFF1F881F8BBF4A
:0C0A20000790F691E02D1994F894FFCF98
:100A2C0000000000FE01680195014B02C601A40103
:020A3C00B801FF
:00000001FF
