:100000000C9462000C948A000C948A000C948A0070
:100010000C948A000C948A000C948A000C948A0038
:100020000C948A000C948A000C948A000C948A0028
:100030000C948A000C948A000C948A000C948A0018
:100040000C94B2040C948A000C948A000C948A00DC
:100050000C948A000C948A000C948A000C948A00F8
:100060000C94FC040C948A0000000000240027007B
:100070002A0000000000250028002B0000000000DE
:1000800023002600290004040404040404040202DA
:100090000202020203030303030301020408102007
:1000A0004080010204081020010204081020000012
:1000B0000008000201000003040700000000000027
:1000C0000000170611241FBECFEFD8E0DEBFCDBF62
:1000D00011E0A0E0B1E0E8E7F5E102C005900D9283
:1000E000AC34B107D9F722E0ACE4B1E001C01D9215
:1000F000A931B207E1F710E0C2E6D0E004C02197D1
:10010000FE010E94B40AC136D107C9F70E94460613
:100110000C94BA0A0C940000AF92BF92CF92DF9277
:10012000EF92FF920F931F93CF93DF936C017B01AC
:100130008B01040F151FEB015E01AE18BF08C0173D
:10014000D10759F06991D601ED91FC910190F081B0
:10015000E02DC6010995892B79F7C501DF91CF9173
:100160001F910F91FF90EF90DF90CF90BF90AF90D5
:100170000895833081F028F4813099F08230A9F01D
:1001800008958730A9F08830C9F08430B1F48091A7
:1001900080008F7D03C0809180008F7780938000E6
:1001A000089584B58F7784BD089584B58F7DFBCF86
:1001B0008091B0008F778093B00008958091B00057
:1001C0008F7DF9CF1F93CF93DF93282F30E0F90174
:1001D000E255FF4F8491F901E656FF4FD491F901A2
:1001E000EA57FF4FC491CC23A9F0162F81110E942A
:1001F000B900EC2FF0E0EE0FFF1FEE58FF4FA59176
:10020000B4918FB7F894EC91111108C0D095DE230A
:10021000DC938FBFDF91CF911F910895DE2BF8CF34
:10022000CF93DF9390E0FC01E656FF4F24918A576D
:100230009F4FFC0184918823D1F090E0880F991F93
:10024000FC01E859FF4FA591B491FC01EE58FF4F16
:10025000C591D49161110EC09FB7F8948C91E22F93
:10026000E0958E238C932881E223E8839FBFDF9162
:10027000CF9108958FB7F894EC91E22BEC938FBF58
:10028000F6CFCF93DF93C2E0D2E060E08A810E9494
:10029000E20061E08A810E94100160E088810E9492
:1002A000E20061E088810E94100161E089810E9482
:1002B000100161E08A810E94E2008BE090E00197EA
:1002C000F1F7DF91CF9108953FB7F8948091E6015F
:1002D0009091E701A091E801B091E90126B5A89BB2
:1002E00005C02F3F19F00196A11DB11D3FBFBA2FC8
:1002F000A92F982F8827BC01CD01620F711D811D88
:10030000911D42E0660F771F881F991F4A95D1F70C
:1003100008958F929F92AF92BF92CF92DF92EF9209
:10032000FF924B015C010E9464016B017C010E9401
:1003300064016C197D098E099F09683E734081052F
:100340009105A8F321E0821A9108A108B10888EE6E
:10035000C80E83E0D81EE11CF11C81149104A10495
:10036000B10429F7FF90EF90DF90CF90BF90AF904E
:100370009F908F90089508951F93CF93DF93C1E0CE
:10038000C0934D01882399F1D091B8001091BA0023
:100390008091BC008A7B8093BC0060E082E10E9477
:1003A000E20060E083E10E94E2001092B701C09396
:1003B000B6011092910161E082E10E94E20061E0E9
:1003C00083E10E94E2008091B9008E7F8093B900A2
:1003D0008091B9008D7F8093B90088E48093B80044
:1003E00085E48093BC001093BA00D093B800DF91ED
:1003F000CF911F91089520916E01260F3327331F4F
:1004000021323105ECF42091B701FC0190E080E04D
:10041000243069F082E00895A0916E012191AC0131
:10042000425B5E4FA40FB52FB11D2C93019686172A
:1004300098F380916E01680F60936E0180E00895DB
:1004400081E0089508958FEF9FEF08958FEF9FEF5C
:10045000089580914C0190E09195819591090895BE
:10046000CF92DF92EF92FF920F931F93CF93DF9380
:100470007C01CB018A012091BD01222389F0EB018F
:100480006B01C40ED51ECC15DD0569F06991D7014D
:10049000ED91FC910190F081E02DC7010995F3CF1A
:1004A000642F0E94FB01C801DF91CF911F910F9132
:1004B000FF90EF90DF90CF900895CF93DF931F923E
:1004C000CDB7DEB769832091BD012223F9F02091D9
:1004D000E001203258F021E030E0FC013383228338
:1004E00090E080E00F90DF91CF9108958091BE0160
:1004F000E82FF0E0E154FE4F998190838F5F809365
:10050000BE018093E00181E090E0ECCF61E0CE019C
:1005100001960E94FB01F7CFCF92DF92EF92FF92FC
:100520000F931F93CF93DF93FC01C48121E02093AD
:10053000BD01C093DF011092BE011092E0018385DE
:10054000682B86EF91E00E945D02D091E001D132EC
:1005500008F092C00E9464016B017C018091B70198
:10056000811165C082E08093B70181E08093B6017C
:100570008FEF8093B5011092B401D093B301AFEB2C
:10058000B1E0E3E9F1E080E0D81385C01092920178
:1005900080919201CC0FC82BC09392018091910160
:1005A000813009F07CC0109291010E9464016B01BE
:1005B0007C01809192018093BB008091B901909160
:1005C000BA01A091BB01B091BC01892B8A2B8B2B66
:1005D00099F00E9464010091B9011091BA01209133
:1005E000BB013091BC016C197D098E099F0906176A
:1005F000170728073907E0F18091BC0083FDD9CFA8
:1006000085EC8093BC000E9464016B017C018091A9
:10061000B701823009F445C08091B5018F3F61F187
:100620008091B501803241F18091B50125C0809162
:10063000B9019091BA01A091BB01B091BC01892B85
:100640008A2B8B2B09F48ACF0E9464010091B90197
:100650001091BA012091BB013091BC016C197D0948
:100660008E099F09061717072807390708F076CF64
:100670008091B8010E94BC011092BE011092E0016D
:100680001092BD01DF91CF911F910F91FF90EF90DC
:10069000DF90CF9008959D9191938F5F75CF85EEF8
:1006A000B0CF8091B9019091BA01A091BB01B091F6
:1006B000BC01892B8A2B8B2B09F4A9CF0E946401E2
:1006C0000091B9011091BA012091BB013091BC0198
:1006D0006C197D098E099F09061717072807390726
:1006E00008F095CFC5CF90E080E00895FF920F937A
:1006F0001F93CF93DF93F62ED0E0C0E0082F10E0D9
:10070000B8010C2E02C0759567950A94E2F76170E6
:10071000809103020E94E20061E0809102020E9447
:10072000E20060E0FF2089F0C730D10571F48091CC
:1007300003020E9410012196C830D10509F7DF910C
:10074000CF911F910F91FF900895809102020E9416
:10075000E200F1CFCF93C82F0E94410160E08C2FBF
:100760000E94760360E080E00E94760360E0809162
:1007700004020E94E2008BE090E00197F1F7CF9134
:1007800008950F931F93CF938C01C62F0E948C0264
:100790006C2F6460C8010E948C026C2F6B7FC801B3
:1007A0000E948C0283EC90E00197F1F7CF911F91AA
:1007B0000F9108950F931F93CF93DF938C01D62F42
:1007C000C42F607F642B0E94C10380E1D89FB001D9
:1007D00011246C2BC801DF91CF911F910F910C94C4
:1007E000C103CF93DF93CDB7DEB728970FB6F89448
:1007F000DEBF0FBECDBF98E0E0E0F1E0DE01119674
:1008000001900D929A95E1F790911502981710F4C6
:100810008FEF890F90E0880F991F21E030E02C0FB7
:100820003D1F820F931FFC016081606840E08DE0F6
:1008300092E028960FB6F894DEBF0FBECDBFDF91D1
:10084000CF910C94DA0341E00E94DA0381E090E05A
:100850000895FC0101900020E9F73197AF01481B92
:10086000590BBC018DE092E00C948C008F929F920A
:10087000AF92BF920F931F93CF93DF93CDB7DEB7A5
:10088000A1970FB6F894DEBF0FBECDBF19A24230BC
:1008900008F44AE08E010F5D1F4F842E912CB12C7D
:1008A000A12CA50194010E94920AE62FB901CA0168
:1008B000EA30F4F4E05DD801EE938D01232B242B74
:1008C000252B79F790E080E0109719F0CD010E9478
:1008D0002904A1960FB6F894DEBF0FBECDBFDF91FD
:1008E000CF911F910F91BF90AF909F908F900895DF
:1008F000E95CE1CF85ED8093BC008091B9019091D6
:10090000BA01A091BB01B091BC010796A11DB11D18
:1009100023E0B695A795979587952A95D1F72091CD
:10092000BC0024FD03C01092B70108954091B901A5
:100930005091BA016091BB017091BC01452B462BCF
:10094000472B69F30097A105B10541F025E32A95EE
:10095000F1F700000197A109B109E1CF8091B80139
:100960000C94BC011F920F920FB60F9211242F937B
:100970003F938F939F93AF93BF938091E2019091A8
:10098000E301A091E401B091E5013091E10123E0A0
:10099000230F2D3758F50196A11DB11D2093E101BC
:1009A0008093E2019093E301A093E401B093E50109
:1009B0008091E6019091E701A091E801B091E901F1
:1009C0000196A11DB11D8093E6019093E701A093CC
:1009D000E801B093E901BF91AF919F918F913F9151
:1009E0002F910F900FBE0F901F90189526E8230FA0
:1009F0000296A11DB11DD2CF1F920F920FB60F927A
:100A000011242F933F934F935F936F937F938F9313
:100A10009F93AF93BF93EF93FF938091B900887F2B
:100A2000803609F44AC0F0F5883209F4A5C018F5FB
:100A3000803109F499C0B8F4882309F4F5C08830EE
:100A400009F492C0FF91EF91BF91AF919F918F9167
:100A50007F916F915F914F913F912F910F900FBEBA
:100A60000F901F901895883109F486C0803251F795
:100A70008093B50114C0803409F49BC040F48033E6
:100A8000B9F38833F9F68093B50185ECAEC08035B3
:100A900009F483C0883509F494C0883499F60E941B
:100AA0007A04D0CF883909F48AC038F5883729F01C
:100AB00050F4883611F0803729F683E08093B7012F
:100AC0001092900155C0883809F479C0803919F026
:100AD000803809F0B7CF80919001803208F06FC064
:100AE000E091900181E08E0F809390018091BB0096
:100AF000F0E0E059FE4F80833BC0803B39F0D0F4FA
:100B0000803A09F477C0883A09F09CCF84E080935A
:100B1000B70110926F0110926E01F0E0E0E00995CC
:100B200080916E0181110FC081E080936E0110925F
:100B30004E0109C0803C09F4A8CF883C09F4A5CF38
:100B4000883B09F07FCFE0916F0181E08E0F8093A9
:100B50006F01F0E0E25BFE4F80818093BB009091DB
:100B60006F0180916E0129C0809192018093BB003A
:100B700085EC8093BC0066CF9091B4018091B30165
:100B8000981758F5E091B40181E08E0F8093B4017D
:100B9000F0E0ED56FE4F8081E9CFE091B40181E0B5
:100BA0008E0F8093B4018091BB00F0E0ED56FE4FB4
:100BB00080839091B4018091B3019817C8F285E8C1
:100BC000D8CFE091B40181E08E0F8093B401809181
:100BD000BB00F0E0ED56FE4F80838091B60181119D
:100BE0005ECF81E08093910184EA8093BC001092F3
:100BF000B70128CF85EC8093BC001092B70180919B
:100C00009001803230F4E0919001F0E0E059FE4F25
:100C100010826091900170E080E791E0F0E0E0E008
:100C20000995109290010ECF1092B50138CFE6EFE2
:100C3000F1E01382128288EE93E0A0E0B0E08483BA
:100C40009583A683B7838CE091E091838083EDE068
:100C5000F2E0138212828EE191E09183808380E240
:100C6000848384E1818784E082871386E2E0F2E076
:100C700087E0808386E0818385E082838EE890E050
:100C80000E94AA0380E990E00C94AA03789484B5AA
:100C9000826084BD84B5816084BD85B5826085BD78
:100CA00085B5816085BD80916E00816080936E0006
:100CB00010928100809181008260809381008091F8
:100CC00081008160809381008091800081608093A9
:100CD00080008091B10084608093B1008091B00069
:100CE00081608093B00080917A00846080937A0064
:100CF00080917A00826080937A0080917A0081608E
:100D000080937A0080917A00806880937A001092B4
:100D1000C1008091120288608093120214E0109347
:100D2000150262E370E080E090E00E94890160912A
:100D300018028DE092E00E948C0268EE73E080E081
:100D400090E00E94890160E38DE092E00E94C1037F
:100D5000CBE4D6E4CE010197F1F760E38DE092E0B9
:100D60000E94C1032197F1F760E38DE092E00E94B9
:100D7000C10383E592E00197F1F760E28DE092E034
:100D80000E94C10360911202606240E08DE092E037
:100D90000E94DA031093130240E06CE08DE092E0D1
:100DA0000E94DA0340E061E08DE092E00E94DA0305
:100DB000CBE3DFE1CE010197F1F782E080931402EB
:100DC00040E066E08DE092E00E94DA0340E062E0FD
:100DD0008DE092E00E94DA032197F1F788E080939A
:100DE000180260E08DE092E00E948C0260E08EE0EC
:100DF0000E941001812C912C540183942BE0222E0F
:100E0000312CC0E0D0E080E480937C0080917A00B7
:100E1000806480937A0080917A0086FDFCCF809177
:100E2000780060917900762F682F072E000C880BD0
:100E3000990B0E946B0920E030E040E85AE30E94E1
:100E4000200A20E030E04AEF53E40E94200A609339
:100E5000F2017093F3018093F4019093F50180E027
:100E60000E94F10386E291E00E942904C090F20101
:100E7000D090F301E090F401F090F501A701960104
:100E8000C701B6010E948D0A882309F4E0C08EE2F2
:100E900091E00E9429048AE391E00E9429040E94C3
:100EA000410161E08FEB0E9476030AEE11E0F12C24
:100EB000E12CD12C61E0809102020E94E20060E00E
:100EC000809102020E94E2002091030230E0F901C9
:100ED000E255FF4F8491F901E656FF4FC490F901A6
:100EE000EA57FF4F7490772009F445C181110E94A1
:100EF000B900E72DF0E0EE0FFF1FE458FF4FA5917A
:100F0000B491EC91D501C4010E2C04C0880F991F37
:100F1000AA1FBB1F0A94D2F7CE2209F42CC1D82AEB
:100F2000EFEFEE1AFE0AF8E0EF16F10409F0C2CF77
:100F3000F801D1928F01F1E0023F1F0709F0B7CF0E
:100F400060E0809104020E94E200C1010197F1F784
:100F50008091EA01982F929597702AE08F70929F66
:100F6000800D1124809305028091EB01982F9295BA
:100F700097708F70929F800D11248093060280914C
:100F8000EC01982F929593708F70929F800D112491
:100F9000809307028091EF0187708093080280910F
:100FA000ED01982F929593708F70929F800D112470
:100FB000809309028091EE0184FB992790F98F704C
:100FC000929F800D112480930A028091F001382FA6
:100FD00032953F708F7090E0329F800D911D1124EB
:100FE0008053984F90930C0280930B0282E00E94F2
:100FF000F1038DE391E00E9429046091070270E003
:1010000090E080E04AE00E94360489E491E00E948A
:1010100029046091060270E090E080E04AE00E94BE
:10102000360489E491E00E9429046091050270E091
:1010300090E080E04AE00E94360487E491E00E945C
:101040002904209709F4DFCE0E940000DCCE26019F
:101050003701E89477F82FEF3FEF4FE75FE7C301E1
:10106000B2010E948D0A81110DC02FEF3FEF4FE7B3
:101070005FE7C301B2010E94350918161CF482E330
:1010800091E007CF2FEF3FEF4FE75FE4C701B601D5
:101090000E941B0A18161CF486E391E0FACE2FEF8B
:1010A0003FEF4FE75FECC701B6010E94350987FDAE
:1010B000F3CF20E030E0A901C701B6010E94350955
:1010C00087FF0AC041E06DE28DE092E00E94DA0302
:1010D000F7FAF094F7F8F0942AE037ED43EA5BE38F
:1010E000C701B6010E94C9082B013C010E943A09C0
:1010F0006B017C010E9469099B01AC01C301B20133
:101100000E94C8082B013C014AE0C701B6010E94B9
:10111000360441E06EE28DE092E00E94DA0320E0C6
:1011200030E040E251E4C301B2010E94200A2B01E9
:101130003C010E943A096B01F12CE12C4AE0C70105
:10114000B6010E943604C701B6010E9469099B01DD
:10115000AC01C301B2010E94C80820E030E040E2C7
:1011600051E40E94200A0E943A0990E080E04AE09F
:101170000E94360490CED501C4010E2C04C0880F05
:10118000991FAA1FBB1F0A94D2F78095D822C8CEF8
:101190005058BB27AA270E94E0080C94E1090E943E
:1011A000D30938F00E94DA0920F039F49F3F19F48E
:1011B00026F40C94D0090EF4E095E7FB0C94CA09D0
:1011C000E92F0E94F20958F3BA17620773078407E0
:1011D000950720F079F4A6F50C94140A0EF4E09526
:1011E0000B2EBA2FA02D0B01B90190010C01CA01E1
:1011F000A0011124FF27591B99F0593F50F4503E8C
:1012000068F11A16F040A22F232F342F4427585F7D
:10121000F3CF469537952795A795F0405395C9F795
:101220007EF41F16BA0B620B730B840BBAF091504D
:10123000A1F0FF0FBB1F661F771F881FC2F70EC0EC
:10124000BA0F621F731F841F48F4879577956795BF
:10125000B795F7959E3F08F0B0CF9395880F08F0AB
:101260009927EE0F9795879508950E94A60908F48F
:1012700081E008950E94FA0988F09F5798F0B92FED
:101280009927B751B0F0E1F0660F771F881F991FBB
:101290001AF0BA95C9F714C0B13091F00E94140A3F
:1012A000B1E008950C94140A672F782F8827B85F4F
:1012B00039F0B93FCCF3869577956795B395D9F713
:1012C0003EF490958095709561957F4F8F4F9F4F1D
:1012D0000895E89409C097FB3EF490958095709529
:1012E00061957F4F8F4F9F4F9923A9F0F92F96E972
:1012F000BB279395F695879577956795B795F111E7
:10130000F8CFFAF4BB0F11F460FF1BC06F5F7F4F83
:101310008F4F9F4F16C0882311F096E911C0772395
:1013200021F09EE8872F762F05C0662371F096E89E
:10133000862F70E060E02AF09A95660F771F881F6D
:10134000DAF7880F9695879597F90895990F000811
:10135000550FAA0BE0E8FEEF16161706E807F90787
:10136000C0F012161306E407F50798F0621B730B22
:10137000840B950B39F40A2661F0232B242B252BA3
:1013800021F408950A2609F4A140A6958FEF811D46
:10139000811D089597F99F6780E870E060E00895E7
:1013A0009FEF80EC089500240A941616170618067D
:1013B0000906089500240A94121613061406050659
:1013C0000895092E0394000C11F4882352F0BB0FEA
:1013D00040F4BF2B11F460FF04C06F5F7F4F8F4F4D
:1013E0009F4F089557FD9058440F551F59F05F3F88
:1013F00071F04795880F97FB991F61F09F3F79F037
:1014000087950895121613061406551FF2CF4695B8
:10141000F1DF08C0161617061806991FF1CF86953A
:101420007105610508940895E894BB27662777271E
:10143000CB0197F908950E94A60908F48FEF08954B
:101440000E94330A0C94E1090E94D30938F00E94EB
:10145000DA0920F0952311F00C94CA090C94D009F4
:1014600011240C94150A0E94F20970F3959FC1F3A0
:10147000950F50E0551F629FF001729FBB27F00D42
:10148000B11D639FAA27F00DB11DAA1F649F662797
:10149000B00DA11D661F829F2227B00DA11D621FE6
:1014A000739FB00DA11D621F839FA00D611D221FA0
:1014B000749F3327A00D611D231F849F600D211D84
:1014C000822F762F6A2F11249F5750409AF0F1F007
:1014D00088234AF0EE0FFF1FBB1F661F771F881F70
:1014E00091505040A9F79E3F510580F00C94CA09D5
:1014F0000C94150A5F3FE4F3983ED4F386957795F4
:101500006795B795F795E7959F5FC1F7FE2B880F15
:10151000911D9695879597F908950E94A609880BC5
:10152000990B0895A1E21A2EAA1BBB1BFD010DC049
:10153000AA1FBB1FEE1FFF1FA217B307E407F50783
:1015400020F0A21BB30BE40BF50B661F771F881F5F
:10155000991F1A9469F760957095809590959B01F5
:10156000AC01BD01CF010895EE0FFF1F0590F4916E
:08157000E02D0994F894FFCF6F
:101578000000400014005400000000005D0230022A
:10158800730322022902260223020000000023041A
:101598008C007303BB0153756875203A20006E6197
:1015A8006E00696E66006F76660020430068683AD0
:0C15B8006D6D3A7373203A20003A000079
:00000001FF
