:020000040000FA
:100000000C9466000C948E000C948E000C948E0060
:100010000C948E000C948E000C948E000C948E0028
:100020000C948E000C948E000C948E000C948E0018
:100030000C948E000C948E000C948E000C948E0008
:100040000C94A9140C948E000C9477140C945114F5
:100050000C948E000C948E000C948E000C948E00E8
:100060000C948E000C948E007C3C3E5E2B3D3F2F0A
:100070005B5D3B2C2A225C0000000000250028006C
:100080002B0000000008000201000003040700002C
:1000900000000000000000000000240027002A00EB
:1000A000010204081020408001020408102001020F
:1000B00004081020040404040404040402020202DC
:1000C0000202030303030303F314AE1811241FBE3B
:1000D000CFEFD8E0DEBFCDBF25E0A8E4B2E001C09D
:1000E0001D92AC36B207E1F712E0A0E0B1E0E4E225
:1000F000FBE302C005900D92A834B107D9F710E0D8
:10010000C5E6D0E004C02197FE010E94661BC436FC
:10011000D107C9F70E94BD150C94851D0C940000F1
:10012000CF93DF93FC01828193819093500580935C
:100130004F0584819581A681B78180935105909365
:100140005205A0935305B093540580859185A285EF
:10015000B3858093550590935605A0935705B093AA
:100160005805DF011C96CF014996C9E5D5E02D91D0
:100170002993A817B907D9F7818D928D90936705B8
:10018000809366058DE495E0DF91CF910895AF925D
:10019000BF92CF92DF92EF92FF920F931F93CF9374
:1001A000DF936C017B018B01040F151FEB015E01D6
:1001B000AE18BF08C017D10759F06991D601ED916B
:1001C000FC910190F081E02DC6010995892B79F70A
:1001D000C501DF91CF911F910F91FF90EF90DF90BC
:1001E000CF90BF90AF900895FC01538D448D252F83
:1001F00030E0842F90E0821B930B541710F0CF96C1
:10020000089501970895FC01918D828D981761F0F2
:10021000A28DAE0FBF2FB11D5D968C91928D9F5F09
:100220009F73928F90E008958FEF9FEF0895FC01E8
:10023000918D828D981731F0828DE80FF11D858D9B
:1002400090E008958FEF9FEF0895FC01918D228D2E
:10025000892F90E0805C9F4F821B91098F739927B3
:1002600008958FE594E00E94250121E0892B09F48F
:1002700020E0822F089580E090E0892B29F00E94F1
:10028000310181110C9400000895FC01A48DA80F88
:10029000B92FB11DA35ABF4F2C91848D90E00196C8
:1002A0008F739927848FA689B7892C93A089B189E8
:1002B0008C91837080648C93938D848D981306C089
:1002C0000288F389E02D80818F7D80830895EF92ED
:1002D000FF920F931F93CF93DF93EC0181E0888F00
:1002E0009B8D8C8D98131AC0E889F989808185FFD0
:1002F00015C09FB7F894EE89FF896083E889F98972
:1003000080818370806480839FBF81E090E0DF9173
:10031000CF911F910F91FF90EF900895F62E0B8DC6
:1003200010E00F5F1F4F0F731127E02E8C8D8E1181
:100330000CC00FB607FCFACFE889F989808185FFE8
:10034000F5CFCE010E944501F1CFEB8DEC0FFD2FD3
:10035000F11DE35AFF4FF0829FB7F8940B8FEA89A3
:10036000FB8980818062CFCFCF93DF93EC01888DB2
:100370008823B9F0AA89BB89E889F9898C9185FD20
:1003800003C0808186FD0DC00FB607FCF7CF8C91AE
:1003900085FFF2CF808185FFEDCFCE010E94450120
:1003A000E9CFDF91CF91089590E0FC01EE57FF4F28
:1003B0002491FC01E056FF4F3491FC01EC54FF4FB7
:1003C000E491EE23C9F0222339F0233001F1A8F49F
:1003D000213019F1223029F1F0E0EE0FFF1FE8582B
:1003E000FF4FA591B4918FB7F894EC91611126C09D
:1003F00030953E233C938FBF08952730A9F02830D5
:10040000C9F0243049F7809180008F7D03C080912E
:1004100080008F7780938000DFCF84B58F7784BD95
:10042000DBCF84B58F7DFBCF8091B0008F77809339
:10043000B000D2CF8091B0008F7DF9CF3E2BDACFC4
:10044000CF93DF9390E0FC01E056FF4F24918C5452
:100450009F4FFC0184918823D1F090E0880F991F71
:10046000FC01EA56FF4FA591B491FC01E858FF4FFB
:10047000C591D49161110EC09FB7F8948C91E22F71
:10048000E0958E238C932881E223E8839FBFDF9140
:10049000CF9108958FB7F894EC91E22BEC938FBF36
:1004A000F6CF3FB7F8948091540290915502A091F5
:1004B0005602B091570226B5A89B05C02F3F19F0F0
:1004C0000196A11DB11D3FBFBA2FA92F982F8827D4
:1004D000BC01CD01620F711D811D911D42E0660FAF
:1004E000771F881F991F4A95D1F708958F929F9281
:1004F000AF92BF92CF92DF92EF92FF924B015C01DD
:100500000E9451026B017C010E9451026C197D090D
:100510008E099F09683E734081059105A8F321E08B
:10052000821A9108A108B10888EEC80E83E0D81E8F
:10053000E11CF11C81149104A104B10429F7FF907E
:10054000EF90DF90CF90BF90AF909F908F900895E5
:100550002FB7F8946091500270915102809152022D
:10056000909153022FBF08958FB7F894809149025C
:100570008FBF089561E0FC0184810E94D4018091C5
:10058000480281111092480208958EBD00000DB4FA
:1005900007FEFDCF8EB508958FEF0C94C5020F9323
:1005A0001F93CF93DF93EC010E94A8028B010E945E
:1005B000CC028F3F69F00E94A802601B710B6C1780
:1005C0007D07A8F380E0DF91CF911F910F910895EF
:1005D00081E0F9CF8CBD9DBD0895CF93DF93EC01F1
:1005E00080914802811109C081E080934802809186
:1005F000FC049091FD040E94EA0260E08C81DF918E
:10060000CF910C94D4018F929F92AF92BF92FF92A0
:100610000F931F93CF93DF93EC01F62E49015A01FC
:100620008E81882389F08F8198859C012F5F3F4FB1
:1006300038872F838230924018F40E94CC02F3CF87
:10064000CE010E94BA021E82CE010E94ED028CE20F
:1006500091E00E94CF028F2D80640E94C50208E1C4
:1006600010E0D501C401002E04C0B695A79597955A
:1006700087950A94D2F70E94C50208501109083FD5
:100680008FEF180771F785E9FF2021F028E087E850
:10069000F2128FEF0E94C50210E00E94CC028A87FE
:1006A00087FF04C01F3F11F01F5FF7CFDF91CF918D
:1006B0001F910F91FF90BF90AF909F908F900895E2
:1006C000AF92BF92CF92DF92EF92FF920F931F9360
:1006D000CF93DF93EC016901C801820F931F813032
:1006E000924050F58E81882379F088819981AA8182
:1006F000BB8184179507A607B70731F48F819885CA
:10070000C816D90608F042C0488359836A837B83A0
:100710008B85833039F089E0440F551F661F771FA2
:100720008A95D1F79A01AB0161E1CE010E940303E2
:10073000882389F083E08D83CE010E94BA0280E095
:10074000DF91CF911F910F91FF90EF90DF90CF90AD
:10075000BF90AF9008950E94A8025B010E94CC0256
:100760008A878F3F69F40E94A8026A197B096D325B
:100770007140A0F38FE08D83CE010E94BA02DCCFDE
:100780008E3F89F418861F8281E08E838F81988541
:100790008C159D0550F40E94CC028F81988501969E
:1007A00098878F83F3CF8DE0E6CF6701E00EF11ECF
:1007B0000E94CC02F60181936F01EE15FF05C1F78F
:1007C0008F819885080F191F18870F8389858823C3
:1007D00019F001151240A0F08E81882389F08F81D5
:1007E00098859C012F5F3F4F38872F83823092403E
:1007F00018F40E94CC02F3CFCE010E94BA021E82EE
:1008000081E09ECFCF92DF92EF92FF920F93CF9332
:10081000DF93EC01690182E1411551056105710524
:1008200099F08B85833039F089E0440F551F661F9E
:10083000771F8A95D1F79A01AB0168E1CE010E943A
:100840000303882319F084E08D832DC08EEF0E946E
:10085000C50276018EEFD81AF70181917F010E94BF
:10086000C502EC14FD04C1F78FEF0E94C5028FEFA3
:100870000E94C5020E94CC028A878F71853071F474
:10088000011116C0CE010E94BA0281E0DF91CF9122
:100890000F91FF90EF90DF90CF90089581E18D83CD
:1008A000CE010E94BA02CE010E94BA0280E0EECFD1
:1008B00088E592E00E94CF02811102C085E1C4CF99
:1008C00020E030E0A9016DE0CE010E9403038823FF
:1008D00011F084E1B9CF0E94CC028111FACFD2CFBE
:1008E0000F9340914B0250914C0260914D027091D8
:1008F0004E02411551056105710599F0082F2FE54C
:1009000032E080915D0290915E020E940204882391
:1009100049F010924B0210924C0210924D0210922C
:100920004E0281E00F9108950F93CF93C82F8091CD
:100930004A02811105C0C1E08C2FCF910F9108951B
:1009400040910001509101016091020170910301F9
:100950000C2F2FE532E080915D0290915E020E94A3
:100960000204811102C0C0E0E7CFCC2321F381E073
:100970000E9470048823B9F310924A02DDCF8F924F
:100980009F92AF92BF92EF92FF920F931F93CF93DC
:100990004B015C01C42F8091000190910101A09155
:1009A0000201B091030188159905AA05BB0551F113
:1009B00081E00E94940481110BC080E0CF911F91CF
:1009C0000F91FF90EF90BF90AF909F908F90089500
:1009D0008FE5E82E82E0F82E00E012E030E020E023
:1009E000B501A40180915D0290915E020E946003B6
:1009F000882319F38092000190920101A0920201D4
:100A0000B092030140914A024C2B40934A0281E08C
:100A1000D5CFCF93DF93EC016E857F858889998947
:100A200041E00E94BF04882351F08A8920E2829F1E
:100A3000C0011124815A9D4FDF91CF91089590E01C
:100A400080E0FACF8F929F92AF92BF92CF92DF92C7
:100A5000EF92FF92CF932EEF34E030935E0220931B
:100A60005D02882309F46DC040E060E070E0CB01D6
:100A70000E94BF0481110BC080E0CF91FF90EF90E6
:100A8000DF90CF90BF90AF909F908F90089580910E
:100A90001D048F7789F78091290490912A04A091F1
:100AA0002B04B0912C0484369105A105B10520F3E7
:100AB000C0902504D0902604E0902704F0902804EC
:100AC000C114D104E104F104B9F240E0C701B60158
:100AD0000E94BF04882381F280916A0290916B0288
:100AE0008115924049F6A0916F02AA2329F26091E4
:100AF0006D0270916E026115710509F4BDCF2091F0
:100B00006C02222309F4B8CFA0931C0520930E0594
:100B100090E080E030E0E1E0F0E0C82FAF01082E87
:100B200002C0440F551F0A94E2F72417350769F0F5
:100B300041E0480F01968930910579F740931705F8
:100B40009BCFC12CD12C7601C0CF8093170520916B
:100B500075023091760250E040E02115310541F4F4
:100B60002091830230918402409185025091860247
:100B700020930F05309310054093110550931205F3
:100B800046015701860E971EA11CB11C80921D05BF
:100B900090921E05A0921F05B0922005E091700270
:100BA000F0917102F0932305E0932205B0E00E94DA
:100BB000DB19DC01CB01880D991DAA1DBB1D80939B
:100BC000240590932505A0932605B093270525E0DD
:100BD000EE0FFF1F2A95E1F7E150FE4FEF2FFF27A1
:100BE000E6958E0F9F1FA11DB11D80931805909350
:100BF0001905A0931A05B0931B058090720290907E
:100C00007302B12CA12C8114910441F480907F02D5
:100C100090908002A0908102B0908202C81AD90AF6
:100C2000EA0AFB0AC80CD91CEA1CFB1C04C0F69497
:100C3000E794D794C794CA95D2F7C0921305D0927F
:100C40001405E0921505F092160585EFC8168FE0A1
:100C5000D806E104F10428F48CE08093210581E0BA
:100C60000CCF80E125EFC2162FEFD206E104F1048C
:100C7000A0F380918B0290918C02A0918D02B09193
:100C80008E028093240590932505A0932605B093AA
:100C9000270580E2E2CF4F925F926F927F928F9210
:100CA0009F92AF92BF92CF92DF92EF92FF920F93FB
:100CB0001F93CF93DF93EC0142305105610571051D
:100CC00090F480E0DF91CF911F910F91FF90EF9012
:100CD000DF90CF90BF90AF909F908F907F906F905C
:100CE0005F904F90089589859A85AB85BC85019664
:100CF000A11DB11D84179507A607B70710F3CB8870
:100D0000DC88ED88FE888F89803109F042C0BB27DE
:100D1000A72F962F852F480159012A013B01C80EA4
:100D2000D91EEA1EFB1E8091000190910101A09145
:100D30000201B0910301C816D906EA06FB0699F52F
:100D40008F898031C1F5B301A20155276627772726
:100D5000440F551F415A5D4FFA0191828082809164
:100D60004A02816080934A028A89823080F08D81B4
:100D70009E81AF81B8858C0D9D1DAE1DBF1D8093DA
:100D80004B0290934C02A0934D02B0934E0281E02F
:100D900099CFDB01CA01E7E0B695A79597958795AE
:100DA000EA95D1F7B8CF40E0C701B6010E94BF0471
:100DB0008111C6CF86CFB301A2014F775527662791
:100DC0007727440F551F440F551F415A5D4FFA01B5
:100DD00080829182A282B382C2CF8F929F92AF9281
:100DE000BF92CF92DF92EF92FF920F931F93CF9318
:100DF000DF93FC0181859285A385B4850196A11DB1
:100E0000B11D84179507A607B70770F480E0DF913E
:100E1000CF911F910F91FF90EF90DF90CF90BF90F7
:100E2000AF909F908F90089583889488A588B68806
:100E30008789803189F5BB27A72F962F852FE90158
:100E40006A017B018F01BC01CD01680D791D8A1DEE
:100E50009B1D8090000190900101A0900201B09034
:100E6000030186169706A806B90601F5F8018789D9
:100E7000803111F5DD24EE24FF24F601EE0FFF1F73
:100E8000E15AFD4F80819181B0E0A0E08883998391
:100E9000AA83BB8381E0BBCFDB01CA01C7E0B69563
:100EA000A79597958795CA95D1F7C9CF40E00E943D
:100EB000BF048111DBCFAACFE894C7F8DD24EE246C
:100EC000FF24F601EE0FFF1FEE0FFF1FE15AFD4F4B
:100ED00080819181A281B381BF70D8CF4F925F9200
:100EE0006F927F92AF92BF92CF92DF92EF92FF927A
:100EF0000F931F93CF93DF9300D000D0CDB7DEB711
:100F00008C0149835A836B837C835901C12CD12C7A
:100F10007601412C82E0582E612C712C49815A8136
:100F20006B817C819E012F5F3F4FC8010E94ED06BF
:100F3000882339F1F8018585A301920104C0220FAD
:100F4000331F441F551F8A95D2F7DA01C901C80E15
:100F5000D91EEA1EFB1E49815A816B817C818789DB
:100F6000803111F188EF9FEFAFEFBFE048175907CD
:100F70006A077B0798F2F501C082D182E282F38290
:100F800081E00F900F900F900F90DF91CF911F9104
:100F90000F91FF90EF90DF90CF90BF90AF907F9038
:100FA0006F905F904F90089588EF9FEFA0E0B0E0C2
:100FB000DDCFCF93DF93FC012581222321F080E058
:100FC000DF91CF910895EC0180912105803159F591
:100FD00082E08583178A108E118E128E80912205F1
:100FE00090912305B0E0A0E025E0880F991FAA1F8B
:100FF000BB1F2A95D1F7838B948BA58BB68B8AE088
:1010000095E09C8F8B8F81E08C831E821F821886D7
:1010100019861A861B861C861D861E861F86188AC0
:10102000198A1A8ACDCF803251F683E085834091A8
:101030002405509125056091260570912705478B61
:10104000508F618F728F9F012D5E3F4F8AE095E038
:101050000E946E078111D3CFB2CF8F929F92AF9231
:10106000BF92CF92DF92EF92FF920F931F93CF9395
:10107000DF93EC018D8181110EC080E0DF91CF9173
:101080001F910F91FF90EF90DF90CF90BF90AF90A6
:101090009F908F9008950B891C892D893E89041794
:1010A00015072607370748F34A015B01823031F400
:1010B0008A869B86AC86BD8681E0E0CF8114910450
:1010C000A104B10449F41E821F82188619861A866B
:1010D0001B861C861D86F0CF0A851B852C853D85C9
:1010E000EB8DFC8D858590E00996B901A8014150F2
:1010F000510961097109082E04C0769567955795C5
:1011000047950A94D2F775016401E1E0CE1AD1083F
:10111000E108F10804C0F694E794D794C7948A953F
:10112000D2F7C416D506E606F70620F0012B022BEF
:10113000032B11F58F89988DA98DBA8D8E839F838E
:10114000A887B9878E010A5F1F4FC114D104E1043B
:10115000F10409F4ADCF4E815F81688579859801EE
:101160008B8D9C8D0E94ED0691E0C91AD108E10893
:10117000F1088111EACF81CFC41AD50AE60AF70A2D
:10118000E1CF3F924F925F926F927F928F929F92A8
:10119000AF92BF92CF92DF92EF92FF920F931F9385
:1011A000CF93DF93CDB7DEB72C970FB6F894DEBFA1
:1011B0000FBECDBF5C01DC015B968D909C905C976F
:1011C00016964D905D906D907C9019974114510446
:1011D0006104710409F468C0BFEF4B1A5B0A6B0A23
:1011E0007B0A312CF40181859285A385B4859C010D
:1011F000AD012F5F3F4F4F4F5F4F29873A874B8796
:101200005C87730162011D821E821F821886F401B1
:1012100081859285A385B4852D813E814F81588536
:10122000281739074A075B0708F056C089859A8551
:10123000AB85BC858C159D05AE05BF0550F482E0DD
:10124000C82ED12CE12CF12C92E0492E512C612C8E
:10125000712C9E012F5F3F4FB701A601C4010E9470
:10126000ED068823C9F189819A81AB81BC81892BE4
:101270008A2B8B2B09F1260137019FEF491A590A56
:10128000690A790A2D813E814F8158852F5F3F4F32
:101290004F4F5F4F2D833E834F8358873FEFC31AD5
:1012A000D30AE30AF30AB3CFF4014080518062808D
:1012B00073803324339496CFC414D504E604F70422
:1012C00009F70FEF1FEF2FEF3FE0B701A601C401B1
:1012D0000E944B06811119C080E02C960FB6F8943D
:1012E000DEBF0FBECDBFDF91CF911F910F91FF9059
:1012F000EF90DF90CF90BF90AF909F908F907F90B6
:101300006F905F904F903F900895D50116964D9144
:101310005D916D917C91199741155105610571059C
:1013200039F097018601C4010E944B068823A1F27F
:10133000D5011696CD92DD92ED92FC92199733204D
:1013400051F0D701C6010196A11DB11DF4018083A2
:101350009183A283B383F5018789908DA18DB28D8E
:10136000892B8A2B8B2B39F48481C78AD08EE18E0E
:10137000F28E80688483F50184818062848381E0B9
:10138000ACCF1F93CF93DF93FC012581222371F112
:10139000162FEC01848187FF1EC0CF010E94090532
:1013A000FC01892B19F18D81823040F48B899C8955
:1013B000AD89BE89848F958FA68FB78F8F89988DC1
:1013C000938F828F8F89988DA98DBA8DB58BA48BC1
:1013D0008C818F778C83111103C08C818F7E8C83DD
:1013E000812FDF91CF911F910C94940480E0DF91C5
:1013F000CF911F910895FF920F931F93CF93DF9387
:10140000EC018D81813041F090E080E0DF91CF915F
:101410001F910F91FF9008958C8181FFF5CF82FD80
:101420001BC000915D0210915E02C8010E94ED0296
:101430000E94CC02F82EC8010E94BA028FEFF81267
:10144000E3CF8C8185FF1BC060E0CE010E94C10903
:101450008C818F7D8C83D8CF4B895C896D897E8907
:101460008A859B85AC85BD8584179507A607B70738
:10147000C1F2CE010E942D088111D3CFC5CF40917A
:101480004B0250914C0260914D0270914E02452BDF
:10149000462B472B21F080E00E947004B5CF80617D
:1014A0008C832A853B85317080E092E0821B930B10
:1014B000ADCFCF93DF93EC0161E00E94C109882397
:1014C00011F01D8281E0DF91CF9108952F923F921C
:1014D0004F925F926F927F928F929F92AF92BF9244
:1014E000CF92DF92EF92FF920F931F93CF93DF93F0
:1014F00000D000D01F92CDB7DEB77C015B01342E47
:101500005D83DC0115968C911597813009F0CEC072
:1015100014962C9021FECAC022FCB4C0C32CDD80DE
:1015200022947FE027222094B22DB1702B2ED70178
:101530001A964D915D916D917C911D97C114D104C6
:1015400009F428C15B968D919C915C97FC01748095
:101550007A948A019B0169E036952795179507953E
:101560006A95D1F770228A011170711020C001159F
:101570001105E9F416964D915D916D917C91199745
:10158000411551056105710509F099C057968D9176
:101590009D910D90BC91A02D0097A105B10509F07A
:1015A000B0C0C7010E94C108882309F47FC080E051
:1015B00092E0801B910B46018C159D0508F44C01AF
:1015C000D7015B964D915C915C9716968D919D919C
:1015D0000D90BC91A02D0297A109B109FA012585B2
:1015E00004C0880F991FAA1FBB1F2A95D2F74685F2
:1015F000578560897189840F951FA61FB71F9C01AD
:10160000AD01270D311D411D511D29013A018114E4
:1016100032E0930609F07BC08091000190910101B6
:10162000A0910201B091030184159505A605B705A7
:1016300059F48FEF9FEFDC0180930001909301013B
:10164000A0930201B0930301022D9501B301A20101
:1016500080915D0290915E020E940204882331F124
:101660009EEFB91AC818D908F70182859385A48519
:10167000B585880D991DA11DB11D82879387A4870B
:10168000B58755CFF7014389548965897689828565
:101690009385A485B585481759076A077B0709F420
:1016A0003DCFC7010E942D08811138CF81E090E025
:1016B000D70113969C938E93129780E007C09E01EA
:1016C0002F5F3F4F0E94ED06811102C090E079C06C
:1016D00089819A81AB81BC81F701238D348DF90119
:1016E000278948EF5FEF60E070E0203121F048EF9C
:1016F0005FEF6FEF7FE084179507A607B70708F045
:1017000050CFF70186839783A087B18750CF01150B
:10171000110599F5D7011A964D915D916D917C91C6
:101720001D9753968D919D910D90BC91A02D4817BA
:1017300059076A077B0708F181E00E949404882317
:1017400009F4B4CF4092000150920101609202016D
:101750007092030180914A02816080934A02C8011D
:10176000815A9D4FD5019C01280D391DFC012E1772
:101770003F0759F04D914193FACF41E0C301B201C7
:101780000E94BF048111EBCF91CF281B390BA20E11
:10179000B31E68CFF70183899489A589B689841718
:1017A0009507A607B70738F48481438B548B658B64
:1017B000768B80688483F701848183FD1AC0832D32
:1017C0009D810F900F900F900F900F90DF91CF9110
:1017D0001F910F91FF90EF90DF90CF90BF90AF904F
:1017E0009F908F907F906F905F904F903F902F9041
:1017F000089561E0C7010E94C109882309F456CF0A
:10180000DECFCF93DF931F92CDB7DEB7698341E080
:1018100050E0BE016F5F7F4F0E94660A0F90DF911C
:10182000CF910895FC01DB0112968D919C91139745
:101830009383828380E291E09183808314968C91DC
:101840001497848315968C911597858316964D91E0
:101850005D916D917C91199746835783608771875D
:101860001A964D915D916D917C911D97428753879A
:10187000648775871E964D915D916D917C9151970E
:1018800046875787608B718B52968C915297828BCB
:1018900053964D915D916D917C915697438B548BEE
:1018A000658B768B57964D915D916D917C915A9792
:1018B000478B508F618F728F5B968D919C91948F27
:1018C000838F08950895FC01818D928D009719F002
:1018D00061E00C94C1090895DC015996ED91FC91E9
:1018E0003097B9F083899489A589B6894285538553
:1018F00064857585841B950BA60BB70B811520E8B5
:101900009207A105B10538F08FEF9FE7A0E0B0E0A6
:10191000089590E080E00895DC0159968D919C91A6
:10192000009739F0DC01ED91FC910480F581E02D08
:10193000099490E080E00895CF93DF93EC01E98D66
:10194000FA8D309749F481E090E09B838A8390E0A0
:1019500080E0DF91CF91089513821282898D9A8D54
:101960000E94660AE98DFA8D22813381232B59F773
:10197000F0CFCF93DF931F92CDB7DEB76983DC0141
:10198000ED91FC910280F381E02D41E050E0BE0139
:101990006F5F7F4F09950F90DF91CF9108952F9240
:1019A0003F924F925F926F927F928F929F92AF92EF
:1019B000BF92CF92DF92EF92FF920F931F93CF933C
:1019C000DF9300D01F92CDB7DEB7FC018581811176
:1019D00018C08FEF9FEF0F900F900F90DF91CF9176
:1019E0001F910F91FF90EF90DF90CF90BF90AF903D
:1019F0009F908F907F906F905F904F903F902F902F
:101A00000895848180FFE5CF43895489658976896B
:101A100082859385A485B585312C212C48175907DB
:101A20006A077B0719F022242394312C6F012101CE
:101A3000CE0101963C01DF011696BB83AA834114B7
:101A4000510409F4C5C0F601428553856485758546
:101A50004A01F1E09F22D6015B968D919C915C97A3
:101A60008A019B01E9E03695279517950795EA9538
:101A7000D1F71596EC91E230E9F5FC01628D738D9A
:101A8000848D958D600F711F821F931FA12C22E002
:101A9000B22EA818B9084A145B0408F45201F601E2
:101AA000248126FD04C0A114F2E0BF0671F4009168
:101AB00000011091010120910201309103010617EC
:101AC00017072807390709F05EC040E00E94BF04ED
:101AD000882309F47ECFC401815A9D4FD3019C0114
:101AE0002A0D3B1DFC012E173F0709F46CC04191E4
:101AF0004D93F9CFDC011496BC90BA94B0228114B6
:101B0000910479F4B1100DC0452B462B472B69F594
:101B1000F6018789908DA18DB28D86839783A087EA
:101B2000B187D6015B96ED91FC915C9716966D910D
:101B30007D918D919C91199762507109810991094C
:101B4000258504C0660F771F881F991F2A95D2F735
:101B50000685178520893189600F711F821F931FA9
:101B60006B0D711D811D911D91CFD60116964D9162
:101B70005D916D917C9119972A813B810E94ED06C0
:101B80008111CFCF26CF730185019401AB01BC0138
:101B900080915D0290915E020E946003882309F4A7
:101BA00018CF6A0C7B1CF60182859385A485B585C8
:101BB0008A0D9B1DA11DB11D82879387A487B587C0
:101BC0004A185B083CCF281B390B620E731EEBCF03
:101BD0002A94232809F0FDCE898190E0FCCEFC01F7
:101BE000818D928D009711F00C94CF0C8FEF9FEFA9
:101BF00008950F931F93CF93DF93EC01898D9A8DF6
:101C000010E000E0009799F00E94CF0C8C010F3F8C
:101C1000100769F0898D9A8DFC0142855385648592
:101C2000758541505109610971090E942D08C8014B
:101C3000DF91CF911F910F9108958F929F92AF9254
:101C4000BF92CF92DF92EF92FF920F931F93CF93A9
:101C5000DF9300D000D0CDB7DEB7FC0185818130A5
:101C600091F080E00F900F900F900F90DF91CF9147
:101C70001F910F91FF90EF90DF90CF90BF90AF90AA
:101C80009F908F900895848181FFEBCF8389948901
:101C9000A589B689892B8A2B8B2B09F45FC07F011C
:101CA00040E050E0BA01CF010E942D088823C9F21C
:101CB000F701C38CD48C8788908CA18CB28C82E085
:101CC00090E0A0E0B0E0F60180839183A283B3832B
:101CD0009E012F5F3F4FB501A401C6010E94ED0692
:101CE000882309F4BECF00E010E09801B501A401FB
:101CF000C6010E944B06882309F4B3CF89809A80DD
:101D0000AB80BC80F6018789803119F188EF9FEFA5
:101D1000AFEFBFE088169906AA06BB06C8F2F70126
:101D2000178A108E118E128E138A148A158A168ABB
:101D300084818068848361E0C7010E94C10988238F
:101D400009F48FCF40E050E0BA01C7010E942D088E
:101D500089CF88EF9FEFA0E0B0E0DCCF81E082CFB9
:101D6000CF92DF92EF92FF921F93CF93DF93EC011C
:101D700080E2689FF0011124E15AFD4F9385917133
:101D800061F0842F827449F080E0DF91CF911F9140
:101D9000FF90EF90DF90CF900895142F6A8B809181
:101DA000000190910101A0910201B09103018E8781
:101DB0009F87A88BB98BC488D588F12CE12C76013C
:101DC000DD24CC24CF8AD88EE98EFA8E828D938D35
:101DD000B0E0A0E0AC01BD014C295D296E297F294E
:101DE0004F8B588F698F7A8F83858871B1F4848D7A
:101DF000958DA68DB78D8B8B9C8BAD8BBE8B81E02B
:101E00008D831F701C831E821F82188619861A8676
:101E10001B861C861D8681E0B8CF803109F0B4CFC7
:101E20009E012D5E3F4F8B8D9C8D0E946E078823F7
:101E300009F4AACF84E0E4CFFB0101900020E9F788
:101E40003197AF01461B570BDC01ED91FC910280ED
:101E5000F381E02D09948F929F92AF92BF920F93DE
:101E60001F93CF93DF93CDB7DEB7A1970FB6F8944A
:101E7000DEBF0FBECDBF19A2423008F44AE08E018A
:101E80000F5D1F4F842E912CB12CA12CA501940124
:101E90000E94441BE62FB901CA01EA3004F5E05D57
:101EA000D801EE938D01232B242B252B79F790E07D
:101EB00080E0109729F0BD018DE495E00E941C0F91
:101EC000A1960FB6F894DEBF0FBECDBFDF91CF91C4
:101ED0001F910F91BF90AF909F908F900895E95CF4
:101EE000DFCF4F925F926F927F928F929F92AF92CD
:101EF000BF92CF92DF92EF92FF920F931F93CF93F7
:101F00006B017C01742EAC019B010E943F1B6AE3B4
:101F100071E0811126C046015701E894B7F82FEF10
:101F20003FEF4FE75FE7C501B4010E943F1B8111FE
:101F30000CC02FEF3FEF4FE75FE7C501B4010E94F0
:101F4000B7186EE371E0181664F02FEF3FEF4FE71C
:101F50005FE4C701B6010E943A1B1816ACF462E4B4
:101F600071E08DE495E0CF911F910F91FF90EF907C
:101F7000DF90CF90BF90AF909F908F907F906F90A9
:101F80005F904F900C941C0F2FEF3FEF4FE75FECEB
:101F9000C701B6010E94B71887FDE1CF20E030E00D
:101FA000A901C701B6010E94B71810E000E087FF41
:101FB0000AC06DE28DE495E00E94B90C8C01F7FA3D
:101FC000F094F7F8F094C0E060E070E080E09FE308
:101FD0007C1641F020E030E040E251E40E94991A82
:101FE000CF5FF6CFA70196010E942D1A2B013C016D
:101FF0000E940B1B4B015C014AE00E942B0F7C01ED
:10200000E00EF11ECC23C1F1C501B4010E94BC1841
:102010009B01AC01C301B2010E942C1A4B015C016F
:102020006EE28DE495E00E94B90CE80EF91EC150F5
:1020300018F120E030E040E251E4C501B4010E9413
:102040001D192B013C010E940B1B4B01B12CA12C33
:102050004AE0C501B4010E942B0FE80EF91EC5012C
:10206000B4010E94BC189B01AC01C301B2010E94E3
:102070002C1A4B015C01DBCFC701CF911F910F914F
:10208000FF90EF90DF90CF90BF90AF909F908F9098
:102090007F906F905F904F9008950F931F93CF9311
:1020A000DF93EC010E941C0F8C0166E471E0CE010D
:1020B0000E941C0F800F911FDF91CF911F910F91F4
:1020C00008953F924F925F926F927F928F929F926C
:1020D000AF92BF92CF92DF92EF92FF920F931F9336
:1020E000CF93DF93CDB7DEB72B970FB6F894DEBF53
:1020F0000FBECDBF7C01DC0115968C91811115C0FE
:10210000FE013196CE010C966F0130E23193E81753
:10211000F907E1F7DA0130E087E09D91B92E9923C4
:1021200029F19E3239F48A3011F480E0DAC038E0C7
:102130008AE0F3CFE8E6F0E04491442321F03196C1
:102140009413FACFF2CF831780F34FED490F4E353A
:1021500060F74FE9490F4A3118F440EEB42EB90E3A
:10216000F601E30FF11DB0823F5FD7CF8981803246
:10217000E1F2322E8B01FB01838D948DD7015C96A9
:102180009C938E935B971682178210861186128617
:10219000138614861586F80182859385A485B585F6
:1021A000438954896589768984179507A607B707F7
:1021B00008F04DC025E0B695A795979587952A9587
:1021C000D1F7F82FFF70AF2ED80115968C91823081
:1021D00008F4ABCFC8010E94CF0C97FDA6CFF80141
:1021E00082859385A485B5854F96A11DB11D8287F3
:1021F0009387A487B587F0E2AF9EB0011124615A9E
:102200007D4F6115710509F490CFDB018C91882316
:1022100041F0853E09F058C0BB2029F0BB24B3949F
:10222000BACFB1100EC0F701A28A8091000190913F
:102230000101A0910201B091030186879787A08BCD
:10224000B18BDB018C918111E9CFBB24B394832D39
:102250008271823109F069CFBB2009F45AC0C701ED
:102260000E940905009709F460CF20E2FC01119259
:102270002A95E9F72BE0F601DC0101900D922A95F1
:10228000E1F721E238E2DC0151963C932E9350971E
:1022900040E058E01F965C934E931E9753963C93F4
:1022A0002E93529759963C932E93589757965C933A
:1022B0004E93569781E00E949404882309F435CF09
:1022C000432DF70162890AC04BE050E0C6010E942D
:1022D0004E1D892B09F05FCF432D6A2DC7010E9447
:1022E000B00E2B960FB6F894DEBF0FBECDBFDF91B8
:1022F000CF911F910F91FF90EF90DF90CF90BF9003
:10230000AF909F908F907F906F905F904F903F9095
:102310000895F8018581823009F407CFC8010E9431
:10232000C108882309F401CFD8015B96ED91FC9197
:102330005C9716968D909D90AD90BC901997B2E0E9
:102340008B1A9108A108B108858504C0880C991CD6
:10235000AA1CBB1C8A95D2F786859785A089B1896E
:10236000880E991EAA1EBB1E848124013501480EC9
:10237000511C611C711C84149504A604B70409F156
:10238000E1E04E1A51086108710881E00E9494044E
:10239000882309F4CACEEFE5F2E011928FE594E0CC
:1023A0008E179F07D1F74092000150920101609271
:1023B00002017092030180914A02816080934A0277
:1023C000DACFD8015B96ED91FC91258580E092E013
:1023D000A0E0B0E004C0880F991FAA1FBB1F2A9578
:1023E000D2F7F8014389548965897689840F951F4E
:1023F000A61FB71F838B948BA58BB68BD7015296E4
:102400001C928FE592E031CF7F928F929F92AF9294
:10241000BF92CF92DF92EF92FF920F931F93CF93D1
:10242000DF93CDB7DEB7C754D1090FB6F894DEBF3E
:102430000FBECDBF5C0119A218A280E291E09F8F70
:102440008E8F1BA21C821B829A8389831E82912CF1
:10245000812C7E018EE1E80EF11C08E215E0C4013A
:10246000F401E75BFE4F20812F3209F40196DC0175
:10247000A75BBE4FFE01FB9630E020E06F014D915F
:102480004F3249F0442339F001962F5F3F4F41937B
:102490002C303105A1F72C0D3D1DF9011082FC01F6
:1024A000E75BFE4F20812F3209F401964C01FC01BD
:1024B000E75BFE4F708041E0711040E030E020E0CB
:1024C000B601C801F501099581111EC0F5E0083279
:1024D0001F07B1F480E0C95BDF4F0FB6F894DEBF91
:1024E0000FBECDBFDF91CF911F910F91FF90EF9065
:1024F000DF90CF90BF90AF909F908F907F90089586
:10250000C8010E94590AE6CF772089F021E0A60190
:10251000B801C7010E946110D82E85E00832180763
:1025200079F0C8010E94590AD1100FC0D3CFE5E05D
:1025300008321E0719F0C8010E94590A81E0CBCF6A
:10254000DD2041F28E010F5F1F4F902F812F8701F9
:10255000E92EF82E84CF1F93CF93DF93CDB7DEB74C
:102560006D970FB6F894DEBF0FBECDBFAB011C82D6
:102570001B8220E231E03A8329831E8221E0BC01E4
:10258000CE0101960E94611011E081110CC010E093
:10259000812F6D960FB6F894DEBF0FBECDBFDF91D1
:1025A000CF911F910895CE0101960E94590AF0CF54
:1025B000CF93DF93CDB7DEB76D970FB6F894DEBF3C
:1025C0000FBECDBF442399F1AB01BC011C821B821D
:1025D00080E291E09A8389831E8222E0CE010196F7
:1025E0000E94611081110EC090E081E0911101C044
:1025F00080E06D960FB6F894DEBF0FBECDBFDF91C1
:10260000CF910895CE0101960E941D0E882361F39B
:10261000CE0101960E940905009731F325EEFC01D9
:1026200020831E8281E00E949404982FDECF81E0F7
:10263000E0CFEF92FF920F931F93CF93DF93EC01C4
:102640007B018A011B821A8288EE93E0A0E0B0E051
:102650008C839D83AE83BF838CE291E099838883D2
:102660008DE190E00E946C1B9A8F898F009779F022
:102670002DE1F701DC0101900D922A95E1F74CE084
:1026800050E0B801CE010C960E94761D188EDF91A5
:10269000CF911F910F91FF90EF9008952F923F924D
:1026A0004F925F926F927F928F929F92AF92BF9262
:1026B000CF92DF92EF92FF920F931F93CF93DF930E
:1026C000CDB7DEB7C756D1090FB6F894DEBF0FBE3F
:1026D000CDBF5C013B01A6964FAFA69719A218A2E9
:1026E00080E291E09F8F8E8F1BA21C821B829A83B7
:1026F00089831E824E018EE1880E911CC4010E94C6
:10270000D90763018E010F5F1F4F240118016FE28B
:1027100070E0C6010E94641D009709F459C0F601DB
:1027200020812F3271F4FFEFCF1ADF0A902F812F13
:102730008201492E582E942D852D2801092F182FFE
:10274000E6CF8C198D3008F08CE0E82EF12CA70133
:10275000B601CE01885A9F4F0E94761DE8E5F0E051
:10276000EC0FFD1FEE0DFF1D1082C8010E94590ADB
:1027700021E0AE01485A5F4FB201C8010E946110CA
:10278000811120C01EAE1DAE80E291E09CAF8BAFE8
:1027900021961FAE2197A896EEADFFADA8976E0EBD
:1027A0007F1EF3018081811120C0BE01655C7F4FD7
:1027B000C1010E94120C43E551E0B101C5010E9424
:1027C000191331C0CE0CDF1CC2010E94590AB3CFCD
:1027D000C60186199709A8969FAF8EAFA897B20138
:1027E000CE01CB960E94120CD6CF19A218A280E27D
:1027F00091E09F8F8E8F1BA221968FAD2197811123
:102800002DC0F5011382128288EE93E0A0E0B0E0C3
:1028100084839583A683B7838CE291E09183808340
:10282000128E118E1486C501C959DF4F0FB6F89468
:10283000DEBF0FBECDBFDF91CF911F910F91FF90F3
:10284000EF90DF90CF90BF90AF909F908F907F9050
:102850006F905F904F903F902F900895A6962FAD68
:10286000A697A301BE01655C7F4FC4010E94611061
:10287000882339F2CE01CB960E94590AA6968FADD5
:10288000A6978670863039F449A95AA96BA97CA904
:10289000C4010E942D08B401C1010E94120CA301C1
:1028A0008CCF1F920F920FB60F9211242F933F934C
:1028B0004F935F936F937F938F939F93AF93BF9348
:1028C000EF93FF938FE594E00E944501FF91EF9114
:1028D000BF91AF919F918F917F916F915F914F9138
:1028E0003F912F910F900FBE0F901F9018951F9240
:1028F0000F920FB60F9211242F938F939F93EF9304
:10290000FF93E0916F04F09170048081E091750471
:10291000F091760482FD1BC09081809178048F5FD6
:102920008F7320917904821741F0E0917804F0E0F0
:10293000E15AFB4F958F80937804FF91EF919F911F
:102940008F912F910F900FBE0F901F90189580813F
:10295000F4CF1F920F920FB60F9211242F933F9333
:102960008F939F93AF93BF938091500290915102A8
:10297000A0915202B091530230914F0223E0230FF5
:102980002D3758F50196A11DB11D20934F0280935C
:10299000500290935102A0935202B093530280913F
:1029A000540290915502A0915602B091570201969F
:1029B000A11DB11D8093540290935502A09356021D
:1029C000B0935702BF91AF919F918F913F912F91FB
:1029D0000F900FBE0F901F90189526E8230F0296B8
:1029E000A11DB11DD2CF109262041092610488EE35
:1029F00093E0A0E0B0E08093630490936404A0931C
:102A00006504B09366042EE031E0309360042093B7
:102A10005F0425EC30E030936C0420936B0424ECCD
:102A200030E030936E0420936D0420EC30E030935E
:102A3000700420936F0421EC30E0309372042093F3
:102A4000710422EC30E0309374042093730426EC7C
:102A500030E030937604209375041092780410923D
:102A6000790410927A0410927B0420E52093FC04F0
:102A70001092FD04109203051092040510920705B0
:102A80001092090542E050E060E070E040930A05D2
:102A900050930B0560930C0570930D051092210562
:102AA00010922B0510922A0520E231E0309329057F
:102AB0002093280510922D051092500510924F0575
:102AC0008093510590935205A0935305B0935405FC
:102AD0008CE291E090934E0580934D05109267052E
:102AE00010926605109259051092480510924705FC
:102AF00010924A051092490510924C0510924B0510
:102B00006AE070E090E080E00E94911C009701F183
:102B1000909348058093470529E030E030934A05BB
:102B20002093490520914B0530914C05232B11F43E
:102B3000FC01108289E090E090934C0580934B0556
:102B400069E471E080914705909148050C946F1DF0
:102B50008091470590914805009711F00E94081C4C
:102B6000109248051092470510924C0510924B05A3
:102B700010924A05109249050895CF93DF93CDB77F
:102B8000DEB76B970FB6F894DEBF0FBECDBF78945B
:102B900084B5826084BD84B5816084BD85B5826062
:102BA00085BD85B5816085BD80916E008160809313
:102BB0006E0010928100809181008260809381007C
:102BC000809181008160809381008091800081608C
:102BD000809380008091B10084608093B1008091E7
:102BE000B00081608093B00080917A00846080930F
:102BF0007A0080917A00826080937A0080917A00D6
:102C0000816080937A0080917A00806880937A0056
:102C10001092C100E0916F04F091700482E0808313
:102C2000E0916B04F0916C041082E0916D04F091DE
:102C30006E048FEC808310927704E0917304F0911E
:102C4000740486E08083E0917104F09172048081C5
:102C500080618083E0917104F091720480818860CA
:102C60008083E0917104F091720480818068808398
:102C7000E0917104F091720480818F7D808360E027
:102C80008FE00E94200261E084E00E942002809197
:102C90002D05882321F088E295E00E94590A1092C0
:102CA000090510920705109204051092030584E0AF
:102CB000809302050E94A8028B0161E080910205C9
:102CC0000E94200261E0809102050E94D401FFB6BB
:102CD000F89480915802811127C0EEEBF0E08491C6
:102CE000EAEAF0E09491E82FF0E0EE0FFF1FEA56D9
:102CF000FF4FA591B491EC91E92321F461E08AE0C2
:102D00000E94D40161E08AE00E9420028CB58061BB
:102D10008CBD8CB580648CBD61E08DE00E9420028A
:102D200061E08BE00E942002809158028F5F8093C7
:102D30005802FFBE82E58093FC041092FD0480914E
:102D4000FC049091FD040E94EA023AE0F32E8FEF1A
:102D50000E94C502FA94F110FACF8EEF94E00E941F
:102D6000ED0220E030E0A90160E08EEF94E00E94E7
:102D70000303F82E8093080581E0F816A9F00E945D
:102D8000A802601B710B613D774058F381E080938E
:102D900003058EEF94E00E94BA0265E571E08FE5CD
:102DA00094E00E944D107AC02AEA31E040E050E001
:102DB00068E08EEF94E00E94030382FF2AC0F09245
:102DC000090580910905C12CD12C7601823029F4A6
:102DD000C12CD12CE12C90E4F92E20E030E0A901A7
:102DE00067E38EEF94E00E940303A701960169E276
:102DF0008EEF94E00E940303809308058823D1F0AE
:102E00000E94A802601B710B613D774030F388E09F
:102E1000BECF24E0F22E0E94CC0280930805FA94E3
:102E2000F110F9CF8A3A11F082E0B1CF82E08093BD
:102E30000905C7CF809109058230D1F420E030E048
:102E4000A9016AE38EEF94E00E940303882311F046
:102E500086E09DCF0E94CC02807C803C19F483E008
:102E6000809309050E94CC020E94CC020E94CC02F1
:102E70008EEF94E00E94BA0280E58093FC041092E9
:102E8000FD0481E00E942205882309F427C188E21D
:102E900095E00E94D907882309F47FCF8BEA92E15D
:102EA0000E940412882301F16AE771E08FE594E043
:102EB0000E944D106CE271E080E090E00E9476028A
:102EC00088ED92E10E94041269EA71E0811102C06A
:102ED00060EC71E08FE594E00E944D1068E572E0CF
:102EE00080E090E00E94760281E4F82E00E010E09D
:102EF000F0927C0080917A00806480937A008091C7
:102F00007A0086FDFCCF8091780060917900762F61
:102F1000682F072E000C880B990B0E94BE18609337
:102F2000590270935A0280935B0290935C02609105
:102F300047057091480547E1CE0101960E944E1366
:102F4000CE0101960E949000E0916605F091670520
:102F5000309709F4CAC08581882309F4C6C020E0EF
:102F600030E04AEF53E46091590270915A02809127
:102F70005B0290915C020E941D1920E030E040E865
:102F80005AE30E941D196093590270935A0280936C
:102F90005B0290935C026AED71E08DE495E00E9423
:102FA0001C0F6091590270915A0280915B029091BE
:102FB0005C0242E00E94710F62EE71E08DE495E0E8
:102FC0000E941C0F20E030E040E151E46091590282
:102FD00070915A0280915B0290915C020E941D19CF
:102FE00020E030E040EA50E40E94991A20E030E00E
:102FF00040E052E40E942D1A6093590270935A02E5
:1030000080935B0290935C0242E00E94710F66EE37
:1030100071E08DE495E00E941C0F20E030E040E874
:1030200050E46091590270915A0280915B02909134
:103030005C020E941D1920E030E040EA50E40E944A
:10304000991A6093590270935A0280935B0290938D
:103050005C0242E00E94710F6BEE71E08DE495E03E
:103060000E944D108091660590916705009761F070
:103070000E94590A80916605909167050E94081C7C
:10308000109267051092660560914705709148059A
:1030900041E0CE0101960E944E13CE0101960E949E
:1030A0009000E0916605F0916705309709F453C0F0
:1030B0008581882309F44FC06EE072E08FE594E0CB
:1030C0000E944D108DE495E00E94EF0D8F3FA1F01E
:1030D000682F8FE594E00E946701F4CF80E00E94A2
:1030E0002205882309F459CED2CE6FEE71E08FE528
:1030F00094E00E944D10C8CF8091660590916705BD
:10310000009761F00E94590A8091660590916705C9
:103110000E94081C10926705109266056FE172E02C
:103120008FE594E00E944D1060ED77E080E090E044
:103130000E9476026CE08FE594E00E946701011521
:10314000110509F4D5CE0E943101882309F4D0CEAF
:103150000E940000CDCE6FE272E0E2CF8091470581
:1031600090914805009711F00C94081C08950E9456
:10317000F91808F481E00895E89409C097FB3EF43B
:1031800090958095709561957F4F8F4F9F4F9923B4
:10319000A9F0F92F96E9BB279395F6958795779532
:1031A0006795B795F111F8CFFAF4BB0F11F460FFF2
:1031B0001BC06F5F7F4F8F4F9F4F16C0882311F04A
:1031C00096E911C0772321F09EE8872F762F05C05E
:1031D000662371F096E8862F70E060E02AF09A95F9
:1031E000660F771F881FDAF7880F9695879597F9EE
:1031F0000895990F0008550FAA0BE0E8FEEF161688
:103200001706E807F907C0F012161306E407F507DA
:1032100098F0621B730B840B950B39F40A2661F04E
:10322000232B242B252B21F408950A2609F4A140F1
:10323000A6958FEF811D811D08950E9430190C9471
:10324000A1190E94931938F00E949A1920F0952331
:1032500011F00C948A190C94901911240C94D5191E
:103260000E94B21970F3959FC1F3950F50E0551F5E
:10327000629FF001729FBB27F00DB11D639FAA27CB
:10328000F00DB11DAA1F649F6627B00DA11D661F1A
:10329000829F2227B00DA11D621F739FB00DA11D3B
:1032A000621F839FA00D611D221F749F3327A00DF5
:1032B000611D231F849F600D211D822F762F6A2F91
:1032C00011249F5750409AF0F1F088234AF0EE0FF6
:1032D000FF1FBB1F661F771F881F91505040A9F723
:1032E0009E3F510580F00C948A190C94D5195F3FCC
:1032F000E4F3983ED4F3869577956795B795F7955F
:10330000E7959F5FC1F7FE2B880F911D96958795D6
:1033100097F9089597F99F6780E870E060E0089555
:103320009FEF80EC089500240A94161617061806DD
:103330000906089500240A941216130614060506B9
:103340000895092E0394000C11F4882352F0BB0F4A
:1033500040F4BF2B11F460FF04C06F5F7F4F8F4FAD
:103360009F4F089557FD9058440F551F59F05F3FE8
:1033700071F04795880F97FB991F61F09F3F79F097
:1033800087950895121613061406551FF2CF469519
:10339000F1DF08C0161617061806991FF1CF86959B
:1033A0007105610508940895E894BB27662777277F
:1033B000CB0197F908950E941D1AA59F900DB49F07
:1033C000900DA49F800D911D112408952F923F927E
:1033D0004F925F926F927F928F929F92AF92BF9225
:1033E000CF92DF92EF92FF920F931F93CF93DF93D1
:1033F000CDB7DEB7CA1BDB0B0FB6F894DEBF0FBE2E
:10340000CDBF09942A88398848885F846E847D847A
:103410008C849B84AA84B984C884DF80EE80FD807C
:103420000C811B81AA81B981CE0FD11D0FB6F894F2
:10343000DEBF0FBECDBFED010895A29FB001B39FC7
:10344000C001A39F700D811D1124911DB29F700DAD
:10345000811D1124911D08955058BB27AA270E9451
:10346000441A0C94A1190E94931938F00E949A19D9
:1034700020F039F49F3F19F426F40C9490190EF4BF
:10348000E095E7FB0C948A19E92F0E94B21958F3D2
:10349000BA17620773078407950720F079F4A6F539
:1034A0000C94D4190EF4E0950B2EBA2FA02D0B011D
:1034B000B90190010C01CA01A0011124FF27591B79
:1034C00099F0593F50F4503E68F11A16F040A22F7F
:1034D000232F342F4427585FF3CF469537952795F0
:1034E000A795F0405395C9F77EF41F16BA0B620BEF
:1034F000730B840BBAF09150A1F0FF0FBB1F661F36
:10350000771F881FC2F70EC0BA0F621F731F841F78
:1035100048F4879577956795B795F7959E3F08F09E
:10352000B0CF9395880F08F09927EE0F9795879560
:1035300008950E94AD1A0C94A1190E949A1958F08E
:103540000E94931940F029F45F3F29F00C948A19E6
:1035500051110C94D5190C9490190E94B21968F36A
:103560009923B1F3552391F3951B550BBB27AA273C
:1035700062177307840738F09F5F5F4F220F331F76
:10358000441FAA1FA9F335D00E2E3AF0E0E832D03E
:1035900091505040E695001CCAF72BD0FE2F29D041
:1035A000660F771F881FBB1F261737074807AB0713
:1035B000B0E809F0BB0B802DBF01FF2793585F4F88
:1035C0003AF09E3F510578F00C948A190C94D51965
:1035D0005F3FE4F3983ED4F3869577956795B7956A
:1035E000F7959F5FC9F7880F911D9695879597F975
:1035F0000895E1E0660F771F881FBB1F62177307EE
:103600008407BA0720F0621B730B840BBA0BEE1F02
:1036100088F7E09508950E94BA1988F09F5798F0AE
:10362000B92F9927B751B0F0E1F0660F771F881FC7
:10363000991F1AF0BA95C9F714C0B13091F00E94E1
:10364000D419B1E008950C94D419672F782F8827E6
:10365000B85F39F0B93FCCF3869577956795B39508
:10366000D9F73EF490958095709561957F4F8F4F77
:103670009F4F08950E94F91808F48FEF08950E9453
:10368000F918880B990B0895A1E21A2EAA1BBB1BEF
:10369000FD010DC0AA1FBB1FEE1FFF1FA217B3071E
:1036A000E407F50720F0A21BB30BE40BF50B661F34
:1036B000771F881F991F1A9469F7609570958095F8
:1036C00090959B01AC01BD01CF010895EE0FFF1F46
:1036D0000590F491E02D09940F931F93CF93DF93FE
:1036E0008230910510F482E090E0E0916A05F0915B
:1036F0006B0530E020E0B0E0A0E0309799F42115B0
:10370000310509F44AC0281B390B24303105D8F59E
:103710008A819B816115710589F1FB019383828305
:10372000FE0111C040815181028113814817590760
:10373000E0F04817590799F4109761F012960C932E
:10374000129713961C933296CF01DF91CF911F9160
:103750000F91089500936A0510936B05F4CF21151E
:10376000310551F04217530738F0A901DB019A01E6
:10377000BD01DF01F801C1CFEF01F9CF90936B05D7
:1037800080936A05CDCFFE01E20FF31F81939193E1
:103790002250310939832883D7CF20916805309191
:1037A0006905232B41F420910601309107013093E4
:1037B00069052093680520910401309105012115C8
:1037C000310541F42DB73EB74091080150910901F0
:1037D000241B350BE0916805F0916905E217F307AA
:1037E000A0F42E1B3F0B2817390778F0AC014E5F71
:1037F0005F4F2417350748F04E0F5F1F5093690540
:1038000040936805819391939FCFF0E0E0E09CCFD7
:10381000CF93DF930097E9F0FC0132971382128275
:10382000A0916A05B0916B05ED0130E020E01097A2
:10383000A1F420813181820F931F2091680530917E
:1038400069052817390709F061C0F0936905E0930D
:103850006805DF91CF910895EA01CE17DF07E8F5FB
:103860004A815B819E0141155105B1F7E901FB8356
:10387000EA8349915991C40FD51FEC17FD0761F4F4
:10388000808191810296840F951FE9019983888335
:10389000828193819B838A83F0E0E0E012968D9190
:1038A0009C9113970097B9F52D913C911197CD01FB
:1038B0000296820F931F20916805309169052817A1
:1038C000390739F6309751F510926B0510926A0559
:1038D000B0936905A0936805BCCFD383C2834081B0
:1038E0005181840F951FC817D90761F44E5F5F4F50
:1038F00088819981480F591F518340838A819B8118
:10390000938382832115310509F0B0CFF0936B05C5
:10391000E0936A059ECFFD01DC01C0CF13821282C5
:10392000D7CFB0E0A0E0E7E9FCE10C94E8198C0106
:10393000009751F4CB010E946C1B8C01C801CDB7DC
:10394000DEB7E0E10C94041AFC01E60FF71F9C01BE
:1039500022503109E217F30708F49DC0D901CD9137
:10396000DC911197C617D70798F0C530D10530F311
:10397000CE0104978617970708F3C61BD70B22972B
:10398000C193D1936D937C93CF010E94081CD6CF35
:103990005B01AC1ABD0A4C018C0E9D1EA0916A05FC
:1039A000B0916B05512C412CF12CE12C109731F585
:1039B00080916805909169058815990509F05CC0AA
:1039C0004616570608F058C08091040190910501F1
:1039D000009741F48DB79EB74091080150910901BD
:1039E000841B950BE817F90708F055C0F09369059B
:1039F000E0936805F90171836083A0CF8D919C915C
:103A0000119712966C90129713967C901397A815A5
:103A1000B90559F56C0142E0C40ED11CCA14DB048F
:103A200020F1AC014A195B09DA011296159780F072
:103A30006282738251834083D9016D937C93E11438
:103A4000F10471F0D7011396FC93EE93129776CFA1
:103A500022968C0F9D1FF90191838083F301EFCF94
:103A6000F0936B05E0936A0569CF4816590608F490
:103A70002C017D01D3019ACFCB010E946C1B7C01EC
:103A8000009749F0AE01B8010E945B1DC8010E9479
:103A9000081C870153CF10E000E050CFFB01DC0190
:103AA00004C08D910190801921F441505040C8F715
:103AB000881B990B0895FB01DC0102C001900D9257
:103AC00041505040D8F70895FC018191861721F0AC
:103AD0008823D9F7992708953197CF010895FB01DD
:103AE000DC0101900D920020E1F70895FB01DC015B
:103AF0004150504048F001900D920020C9F701C09C
:103B00001D9241505040E0F7089510E0C5E6D0E026
:103B100004C0FE010E94661B2196C636D107C9F774
:103B2000F894FFCFFFFFFFFF00006C05800000004E
:103B300000006701C700F400B4012501030117016B
:103B400000000000010CC700FB09620C000000002F
:103B5000B90C9C0C8C0C630C6C0CEF0DF90D6E61A8
:103B60006E00696E66006F7666000D0A00746572FD
:103B70006D6F2E747874002F00546964616B20623D
:103B8000697361204D656E67696E697369616C69FF
:103B90007361736920534420636172642E00466927
:103BA0006C6520227465726D6F2E74787422207398
:103BB00075646168206164612C2066696C652061B0
:103BC0006B616E20646968617075732E0046696C64
:103BD0006520626572686173696C206469686170F0
:103BE00075732E0046696C6520746964616B20648E
:103BF0006170617420646968617075732E0053751B
:103C00006875203A20002043200020462E20002006
:103C1000522E00546964616B206461706174206D80
:103C2000656E756C697320706164612066696C658E
:103C30002E002D2D2D204973692046696C65202D9D
:103C40002D2D002D2D2D2053656C65736169202D60
:103C50002D2D00546964616B2062697361206D656C
:0C3C60006D626163612066696C652E0076
:107E0000112484B714BE81FFF0D085E080938100F7
:107E100082E08093C00088E18093C10086E0809377
:107E2000C20080E18093C4008EE0C9D0259A86E02C
:107E300020E33CEF91E0309385002093840096BBD3
:107E4000B09BFECF1D9AA8958150A9F7CC24DD24C4
:107E500088248394B5E0AB2EA1E19A2EF3E0BF2EE7
:107E6000A2D0813461F49FD0082FAFD0023811F036
:107E7000013811F484E001C083E08DD089C08234E0
:107E800011F484E103C0853419F485E0A6D080C0E4
:107E9000853579F488D0E82EFF2485D0082F10E0AE
:107EA000102F00270E291F29000F111F8ED06801E7
:107EB0006FC0863521F484E090D080E0DECF843638
:107EC00009F040C070D06FD0082F6DD080E0C81688
:107ED00080E7D80618F4F601B7BEE895C0E0D1E017
:107EE00062D089930C17E1F7F0E0CF16F0E7DF06D8
:107EF00018F0F601B7BEE89568D007B600FCFDCFD4
:107F0000A601A0E0B1E02C9130E011968C91119780
:107F100090E0982F8827822B932B1296FA010C0160
:107F200087BEE89511244E5F5F4FF1E0A038BF0790
:107F300051F7F601A7BEE89507B600FCFDCF97BE46
:107F4000E89526C08437B1F42ED02DD0F82E2BD052
:107F50003CD0F601EF2C8F010F5F1F4F84911BD097
:107F6000EA94F801C1F70894C11CD11CFA94CF0C13
:107F7000D11C0EC0853739F428D08EE10CD085E9AC
:107F80000AD08FE07ACF813511F488E018D01DD067
:107F900080E101D065CF982F8091C00085FFFCCF94
:107FA0009093C60008958091C00087FFFCCF809118
:107FB000C00084FD01C0A8958091C6000895E0E648
:107FC000F0E098E1908380830895EDDF803219F02E
:107FD00088E0F5DFFFCF84E1DECF1F93182FE3DFCA
:107FE0001150E9F7F2DF1F91089580E0E8DFEE27F6
:047FF000FF270994CA
:027FFE00040479
:00000001FF
