:020000040000FA
:100000000C9458000C9480000C9480000C94800098
:100010000C9480000C9480000C9480000C94800060
:100020000C9480000C9480000C9480000C94800050
:100030000C9480000C9480000C9480000C94800040
:100040000C94BB030C9480000C9480000C948000F2
:100050000C9480000C9480000C9480000C94800020
:100060000C9405040C94800000000000250028007A
:100070002B00040404040404040402020202020229
:10008000030303030303010204081020408001025C
:1000900004081020010204081020000000080002DB
:1000A000010000030407000000000000000020051C
:1000B00011241FBECFEFD8E0DEBFCDBF11E0A0E01E
:1000C000B1E0E4E1FDE002C005900D92A63CB1076D
:1000D000D9F722E0A6ECB1E001C01D92AC37B2071F
:1000E000E1F710E0C8E5D0E004C02197FE010E94CE
:1000F0008206C735D107C9F70E9440050C948806CF
:100100000C940000AF92BF92CF92DF92EF92FF92D9
:100110000F931F93CF93DF936C017B018B01040F2F
:10012000151FEB015E01AE18BF08C017D10759F0CB
:100130006991D601ED91FC910190F081E02DC6010D
:100140000995892B79F7C501DF91CF911F910F9107
:10015000FF90EF90DF90CF90BF90AF90089590E028
:10016000FC01E656FF4F2491FC01EA57FF4F349102
:10017000FC01EE58FF4FE491EE23C9F0222339F041
:10018000233001F1A8F4213019F1223029F1F0E0F7
:10019000EE0FFF1FE859FF4FA591B4918FB7F89468
:1001A000EC91611126C030953E233C938FBF08959A
:1001B0002730A9F02830C9F0243049F78091800019
:1001C0008F7D03C0809180008F7780938000DFCF88
:1001D00084B58F7784BDDBCF84B58F7DFBCF8091D5
:1001E000B0008F778093B000D2CF8091B0008F7D28
:1001F000F9CF3E2BDACF3FB7F8948091600290910F
:100200006102A0916202B091630226B5A89B05C06D
:100210002F3F19F00196A11DB11D3FBFBA2FA92F85
:10022000982F8827BC01CD01620F711D811D911D82
:1002300042E0660F771F881F991F4A95D1F70895EE
:100240008F929F92AF92BF92CF92DF92EF92FF92E6
:100250004B015C010E94FB006B017C010E94FB00D2
:100260006C197D098E099F09683E734081059105CF
:10027000A8F321E0821A9108A108B10888EEC80EFF
:1002800083E0D81EE11CF11C81149104A104B10487
:1002900029F7FF90EF90DF90CF90BF90AF909F90A5
:1002A0008F90089508951F93CF93DF93C1E0C0937B
:1002B000C701882399F1D091B8001091BA008091BC
:1002C000BC008A7B8093BC0060E082E10E94AF00AA
:1002D00060E083E10E94AF0010923102C0933002CF
:1002E00010920B0261E082E10E94AF0061E083E1C5
:1002F0000E94AF008091B9008E7F8093B9008091F9
:10030000B9008D7F8093B90088E48093B80085E4BC
:100310008093BC001093BA00D093B800DF91CF91C6
:100320001F9108952091E801260F3327331F2132B2
:100330003105ECF420913102FC0190E080E02430A2
:1003400069F082E00895A091E8012191AC01485341
:100350005E4FA40FB52FB11D2C930196861798F30D
:100360008091E801680F6093E80180E0089581E0E2
:10037000089508958FEF9FEF08958FEF9FEF0895F1
:100380008091C60190E09195819591090895CF9251
:10039000DF92EF92FF920F931F93CF93DF937C0135
:1003A000CB018A0120913702222389F0EB016B01F6
:1003B000C40ED51ECC15DD0569F06991D701ED910C
:1003C000FC910190F081E02DC7010995F3CF642FD6
:1003D0000E949201C801DF91CF911F910F91FF9070
:1003E000EF90DF90CF900895CF93DF931F92CDB71A
:1003F000DEB76983209137022223F9F020915A0257
:10040000203258F021E030E0FC013383228390E079
:1004100080E00F90DF91CF91089580913802E82F0E
:10042000F0E0E75CFD4F998190838F5F8093380205
:1004300080935A0281E090E0ECCF61E0CE0101961A
:100440000E949201F7CFCF92DF92EF92FF920F932B
:100450001F93CF93DF93FC01C48121E020933702E7
:10046000C09359021092380210925A028385682B69
:1004700084E692E00E94F401D0915A02D13208F051
:1004800092C00E94FB006B017C01809131028111BE
:1004900065C082E08093310281E0809330028FEF6B
:1004A00080932F0210922E02D0932D02A9E3B2E086
:1004B000EDE0F2E080E0D81385C010920C0280914C
:1004C0000C02CC0FC82BC0930C0280910B02813020
:1004D00009F07CC010920B020E94FB006B017C01B2
:1004E00080910C028093BB00809133029091340282
:1004F000A0913502B0913602892B8A2B8B2B99F073
:100500000E94FB00009133021091340220913502C9
:10051000309136026C197D098E099F09061717075D
:1005200028073907E0F18091BC0083FDD9CF85EC25
:100530008093BC000E94FB006B017C018091310222
:10054000823009F445C080912F028F3F61F1809184
:100550002F02803241F180912F0225C08091330219
:1005600090913402A0913502B0913602892B8A2BEA
:100570008B2B09F48ACF0E94FB000091330210916B
:10058000340220913502309136026C197D098E09B2
:100590009F09061717072807390708F076CF8091BB
:1005A00032020E9453011092380210925A021092A5
:1005B0003702DF91CF911F910F91FF90EF90DF9065
:1005C000CF9008959D9191938F5F75CF85EEB0CFB9
:1005D0008091330290913402A0913502B09136029D
:1005E000892B8A2B8B2B09F4A9CF0E94FB00009149
:1005F00033021091340220913502309136026C1989
:100600007D098E099F09061717072807390708F083
:1006100095CFC5CF90E080E00895FC0101900020C7
:10062000E9F73197AF01481B590BBC0180E792E015
:100630000C9482000F931F93CF938C01C62F0E94BE
:1006400023026C2F6460C8010E9423026C2F6B7F11
:10065000C8010E94230283EC90E00197F1F7CF914B
:100660001F910F9108950F931F93CF93DF938C01E8
:10067000D62FC42F607F642B0E941A0380E1D89F7D
:10068000B00111246C2BC801DF91CF911F910F9104
:100690000C941A03CF93DF93CDB7DEB728970FB62C
:1006A000F894DEBF0FBECDBF98E0E0E0F1E0DE01E0
:1006B000119601900D929A95E1F790917802981712
:1006C00010F48FEF890F90E0880F991F21E030E040
:1006D0002C0F3D1F820F931FFC0160816F5F6068CC
:1006E00040E080E792E028960FB6F894DEBF0FBE98
:1006F000CDBFDF91CF910C94330341E00E943303CF
:1007000081E090E0089585ED8093BC0080913302F4
:1007100090913402A0913502B09136020796A11D46
:10072000B11D23E0B695A795979587952A95D1F7A2
:100730002091BC0024FD03C0109231020895409125
:100740003302509134026091350270913602452B8C
:10075000462B472B69F30097A105B10541F025E32E
:100760002A95F1F700000197A109B109E1CF809125
:1007700032020C9453011F920F920FB60F92112464
:100780002F933F938F939F93AF93BF9380915C027E
:1007900090915D02A0915E02B0915F0230915B0288
:1007A00023E0230F2D3758F50196A11DB11D20938D
:1007B0005B0280935C0290935D02A0935E02B09313
:1007C0005F028091600290916102A0916202B091FB
:1007D00063020196A11DB11D809360029093610296
:1007E000A0936202B0936302BF91AF919F918F91EA
:1007F0003F912F910F900FBE0F901F90189526E8F4
:10080000230F0296A11DB11DD2CF1F920F920FB6DA
:100810000F9211242F933F934F935F936F937F9386
:100820008F939F93AF93BF93EF93FF938091B90002
:10083000887F803609F44AC0F0F5883209F4A5C0F3
:1008400018F5803109F499C0B8F4882309F4F5C08B
:10085000883009F492C0FF91EF91BF91AF919F91C1
:100860008F917F916F915F914F913F912F910F9059
:100870000FBE0F901F901895883109F486C0803202
:1008800051F780932F0214C0803409F49BC040F4C8
:100890008033B9F38833F9F680932F0285ECAEC02C
:1008A000803509F483C0883509F494C0883499F6FA
:1008B0000E948303D0CF883909F48AC038F588377D
:1008C00029F050F4883611F0803729F683E08093C0
:1008D000310210920A0255C0883809F479C0803973
:1008E00019F0803809F0B7CF80910A02803208F001
:1008F0006FC0E0910A0281E08E0F80930A0280911E
:10090000BB00F0E0E651FE4F80833BC0803B39F0F6
:10091000D0F4803A09F477C0883A09F09CCF84E09B
:10092000809331021092E9011092E801F0E0E0E0DA
:1009300009958091E80181110FC081E08093E80161
:100940001092C80109C0803C09F4A8CF883C09F482
:10095000A5CF883B09F07FCFE091E90181E08E0FC0
:100960008093E901F0E0E853FE4F80818093BB0063
:100970009091E9018091E80129C080910C02809357
:10098000BB0085EC8093BC0066CF90912E028091D5
:100990002D02981758F5E0912E0281E08E0F80937A
:1009A0002E02F0E0E35FFD4F8081E9CFE0912E025F
:1009B00081E08E0F80932E028091BB00F0E0E35F18
:1009C000FD4F808390912E0280912D029817C8F2DE
:1009D00085E8D8CFE0912E0281E08E0F80932E0221
:1009E0008091BB00F0E0E35FFD4F80838091300297
:1009F00081115ECF81E080930B0284EA8093BC007A
:100A00001092310228CF85EC8093BC001092310205
:100A100080910A02803230F4E0910A02F0E0E6515F
:100A2000FE4F108260910A0270E08AEE91E0F0E0E1
:100A3000E0E0099510920A020ECF10922F0238CFF3
:100A4000E4E6F2E01382128288EE93E0A0E0B0E0E8
:100A500084839583A683B7838CE091E09183808320
:100A6000E0E7F2E0138212828EE191E091838083CD
:100A700080E2848384E1818784E0828713860895FD
:100A8000789484B5826084BD84B5816084BD85B569
:100A9000826085BD85B5816085BD80916E00816075
:100AA00080936E001092810080918100826080931B
:100AB000810080918100816080938100809180001D
:100AC0008160809380008091B10084608093B10048
:100AD0008091B00081608093B00080917A00846042
:100AE00080937A0080917A00826080937A0080916E
:100AF0007A00816080937A0080917A008068809388
:100B00007A001092C100809175028860809375020E
:100B100014E01093780262E370E080E090E00E94BD
:100B2000200160917B0280E792E00E94230268EE40
:100B300073E080E090E00E94200160E380E792E0B3
:100B40000E941A03CBE4D6E4CE010197F1F760E3EB
:100B500080E792E00E941A032197F1F760E380E7B3
:100B600092E00E941A0383E592E00197F1F760E2B8
:100B700080E792E00E941A0360917502606240E093
:100B800080E792E00E9433031093760240E06CE02D
:100B900080E792E00E94330340E061E080E792E06A
:100BA0000E943303CBE3DFE1CE010197F1F782E04E
:100BB0008093770240E066E080E792E00E94330392
:100BC00040E062E080E792E00E9433032197F1F772
:100BD00088E080937B0260E080E792E00E9423023D
:100BE00080E00E944A0386E291E00E940D0381E0CA
:100BF0000E944A0389E391E00E940D0382E00E9473
:100C00004A0382E491E00E940D0383E00E944A03BC
:100C100080E591E00E940D03CBE3DFE100E010E00E
:100C200068EE73E080E090E00E94200140E061E027
:100C300080E792E00E943303CE010197F1F768EE5E
:100C400073E080E090E00E94200180E00E944A036F
:100C500085E691E00E940D0364EF71E080E090E092
:100C60000E94200181E00E944A038CE691E00E94EC
:100C70000D0364EF71E080E090E00E94200182E0CB
:100C80000E944A0383E791E00E940D0364EF71E044
:100C900080E090E00E94200183E00E944A038AE7FE
:100CA00091E00E940D0368EE73E080E090E00E9406
:100CB000200180E00E944A0381E891E00E940D0338
:100CC00081E00E944A0382E991E00E940D0382E0E4
:100CD0000E944A0383EA91E00E940D0383E00E9490
:100CE0004A0384EB91E00E940D0360ED77E080E021
:100CF00090E00E9420010115110509F491CF0E9496
:100D000000008ECFEE0FFF1F0590F491E02D0994A7
:100D1000F894FFCF000040001400540000000000D1
:100D2000F401C7010A03B901C001BD01BA01000005
:100D300000007D0382000A03520142696D61204177
:100D40006672697A616C204D616C6E610056333455
:100D50003230303138005475676173204E6F6D6FDB
:100D6000722031002E2E2E2E2E2E2E2E2E2E2E2E98
:100D70002E2E2E2E2E2E2E2E004C696E652031002A
:100D80004C696E652032004C696E652033004C69F9
:100D90006E652034004C696E6520312054455354F3
:100DA000204F4B2020004C696E6520322054455363
:100DB00054204F4B2020004C696E65203320544551
:100DC0005354204F4B2020004C696E652034205432
:0A0DD000455354204F4B2020000033
:107E0000112484B714BE81FFF0D085E080938100F7
:107E100082E08093C00088E18093C10086E0809377
:107E2000C20080E18093C4008EE0C9D0259A86E02C
:107E300020E33CEF91E0309385002093840096BBD3
:107E4000B09BFECF1D9AA8958150A9F7CC24DD24C4
:107E500088248394B5E0AB2EA1E19A2EF3E0BF2EE7
:107E6000A2D0813461F49FD0082FAFD0023811F036
:107E7000013811F484E001C083E08DD089C08234E0
:107E800011F484E103C0853419F485E0A6D080C0E4
:107E9000853579F488D0E82EFF2485D0082F10E0AE
:107EA000102F00270E291F29000F111F8ED06801E7
:107EB0006FC0863521F484E090D080E0DECF843638
:107EC00009F040C070D06FD0082F6DD080E0C81688
:107ED00080E7D80618F4F601B7BEE895C0E0D1E017
:107EE00062D089930C17E1F7F0E0CF16F0E7DF06D8
:107EF00018F0F601B7BEE89568D007B600FCFDCFD4
:107F0000A601A0E0B1E02C9130E011968C91119780
:107F100090E0982F8827822B932B1296FA010C0160
:107F200087BEE89511244E5F5F4FF1E0A038BF0790
:107F300051F7F601A7BEE89507B600FCFDCF97BE46
:107F4000E89526C08437B1F42ED02DD0F82E2BD052
:107F50003CD0F601EF2C8F010F5F1F4F84911BD097
:107F6000EA94F801C1F70894C11CD11CFA94CF0C13
:107F7000D11C0EC0853739F428D08EE10CD085E9AC
:107F80000AD08FE07ACF813511F488E018D01DD067
:107F900080E101D065CF982F8091C00085FFFCCF94
:107FA0009093C60008958091C00087FFFCCF809118
:107FB000C00084FD01C0A8958091C6000895E0E648
:107FC000F0E098E1908380830895EDDF803219F02E
:107FD00088E0F5DFFFCF84E1DECF1F93182FE3DFCA
:107FE0001150E9F7F2DF1F91089580E0E8DFEE27F6
:047FF000FF270994CA
:027FFE00040479
:00000001FF
